{
  "_format": "hh-sol-artifact-1",
  "contractName": "WineChain",
  "sourceName": "contracts/WineChain.sol",
  "abi": [
    {
      "inputs": [],
      "stateMutability": "nonpayable",
      "type": "constructor"
    },
    {
      "inputs": [],
      "name": "AccessControlBadConfirmation",
      "type": "error"
    },
    {
      "inputs": [
        {
          "internalType": "address",
          "name": "account",
          "type": "address"
        },
        {
          "internalType": "bytes32",
          "name": "neededRole",
          "type": "bytes32"
        }
      ],
      "name": "AccessControlUnauthorizedAccount",
      "type": "error"
    },
    {
      "inputs": [
        {
          "internalType": "address",
          "name": "sender",
          "type": "address"
        },
        {
          "internalType": "uint256",
          "name": "tokenId",
          "type": "uint256"
        },
        {
          "internalType": "address",
          "name": "owner",
          "type": "address"
        }
      ],
      "name": "ERC721IncorrectOwner",
      "type": "error"
    },
    {
      "inputs": [
        {
          "internalType": "address",
          "name": "operator",
          "type": "address"
        },
        {
          "internalType": "uint256",
          "name": "tokenId",
          "type": "uint256"
        }
      ],
      "name": "ERC721InsufficientApproval",
      "type": "error"
    },
    {
      "inputs": [
        {
          "internalType": "address",
          "name": "approver",
          "type": "address"
        }
      ],
      "name": "ERC721InvalidApprover",
      "type": "error"
    },
    {
      "inputs": [
        {
          "internalType": "address",
          "name": "operator",
          "type": "address"
        }
      ],
      "name": "ERC721InvalidOperator",
      "type": "error"
    },
    {
      "inputs": [
        {
          "internalType": "address",
          "name": "owner",
          "type": "address"
        }
      ],
      "name": "ERC721InvalidOwner",
      "type": "error"
    },
    {
      "inputs": [
        {
          "internalType": "address",
          "name": "receiver",
          "type": "address"
        }
      ],
      "name": "ERC721InvalidReceiver",
      "type": "error"
    },
    {
      "inputs": [
        {
          "internalType": "address",
          "name": "sender",
          "type": "address"
        }
      ],
      "name": "ERC721InvalidSender",
      "type": "error"
    },
    {
      "inputs": [
        {
          "internalType": "uint256",
          "name": "tokenId",
          "type": "uint256"
        }
      ],
      "name": "ERC721NonexistentToken",
      "type": "error"
    },
    {
      "anonymous": false,
      "inputs": [
        {
          "indexed": true,
          "internalType": "address",
          "name": "owner",
          "type": "address"
        },
        {
          "indexed": true,
          "internalType": "address",
          "name": "approved",
          "type": "address"
        },
        {
          "indexed": true,
          "internalType": "uint256",
          "name": "tokenId",
          "type": "uint256"
        }
      ],
      "name": "Approval",
      "type": "event"
    },
    {
      "anonymous": false,
      "inputs": [
        {
          "indexed": true,
          "internalType": "address",
          "name": "owner",
          "type": "address"
        },
        {
          "indexed": true,
          "internalType": "address",
          "name": "operator",
          "type": "address"
        },
        {
          "indexed": false,
          "internalType": "bool",
          "name": "approved",
          "type": "bool"
        }
      ],
      "name": "ApprovalForAll",
      "type": "event"
    },
    {
      "anonymous": false,
      "inputs": [
        {
          "indexed": false,
          "internalType": "uint256",
          "name": "_fromTokenId",
          "type": "uint256"
        },
        {
          "indexed": false,
          "internalType": "uint256",
          "name": "_toTokenId",
          "type": "uint256"
        }
      ],
      "name": "BatchMetadataUpdate",
      "type": "event"
    },
    {
      "anonymous": false,
      "inputs": [
        {
          "indexed": false,
          "internalType": "uint256",
          "name": "_tokenId",
          "type": "uint256"
        }
      ],
      "name": "MetadataUpdate",
      "type": "event"
    },
    {
      "anonymous": false,
      "inputs": [
        {
          "indexed": true,
          "internalType": "bytes32",
          "name": "role",
          "type": "bytes32"
        },
        {
          "indexed": true,
          "internalType": "bytes32",
          "name": "previousAdminRole",
          "type": "bytes32"
        },
        {
          "indexed": true,
          "internalType": "bytes32",
          "name": "newAdminRole",
          "type": "bytes32"
        }
      ],
      "name": "RoleAdminChanged",
      "type": "event"
    },
    {
      "anonymous": false,
      "inputs": [
        {
          "indexed": true,
          "internalType": "bytes32",
          "name": "role",
          "type": "bytes32"
        },
        {
          "indexed": true,
          "internalType": "address",
          "name": "account",
          "type": "address"
        },
        {
          "indexed": true,
          "internalType": "address",
          "name": "sender",
          "type": "address"
        }
      ],
      "name": "RoleGranted",
      "type": "event"
    },
    {
      "anonymous": false,
      "inputs": [
        {
          "indexed": true,
          "internalType": "bytes32",
          "name": "role",
          "type": "bytes32"
        },
        {
          "indexed": true,
          "internalType": "address",
          "name": "account",
          "type": "address"
        },
        {
          "indexed": true,
          "internalType": "address",
          "name": "sender",
          "type": "address"
        }
      ],
      "name": "RoleRevoked",
      "type": "event"
    },
    {
      "anonymous": false,
      "inputs": [
        {
          "indexed": true,
          "internalType": "address",
          "name": "from",
          "type": "address"
        },
        {
          "indexed": true,
          "internalType": "address",
          "name": "to",
          "type": "address"
        },
        {
          "indexed": true,
          "internalType": "uint256",
          "name": "tokenId",
          "type": "uint256"
        }
      ],
      "name": "Transfer",
      "type": "event"
    },
    {
      "anonymous": false,
      "inputs": [
        {
          "indexed": true,
          "internalType": "uint256",
          "name": "tokenId",
          "type": "uint256"
        },
        {
          "indexed": true,
          "internalType": "address",
          "name": "winery",
          "type": "address"
        },
        {
          "indexed": false,
          "internalType": "string",
          "name": "tokenURI",
          "type": "string"
        }
      ],
      "name": "WineCreated",
      "type": "event"
    },
    {
      "anonymous": false,
      "inputs": [
        {
          "indexed": true,
          "internalType": "uint256",
          "name": "tokenId",
          "type": "uint256"
        },
        {
          "indexed": true,
          "internalType": "address",
          "name": "distributor",
          "type": "address"
        }
      ],
      "name": "WineDistributed",
      "type": "event"
    },
    {
      "anonymous": false,
      "inputs": [
        {
          "indexed": true,
          "internalType": "uint256",
          "name": "tokenId",
          "type": "uint256"
        },
        {
          "indexed": true,
          "internalType": "address",
          "name": "regulator",
          "type": "address"
        },
        {
          "indexed": false,
          "internalType": "string",
          "name": "reportUri",
          "type": "string"
        }
      ],
      "name": "WineInspected",
      "type": "event"
    },
    {
      "anonymous": false,
      "inputs": [
        {
          "indexed": true,
          "internalType": "uint256",
          "name": "tokenId",
          "type": "uint256"
        },
        {
          "indexed": true,
          "internalType": "address",
          "name": "retailer",
          "type": "address"
        }
      ],
      "name": "WineReceived",
      "type": "event"
    },
    {
      "anonymous": false,
      "inputs": [
        {
          "indexed": true,
          "internalType": "uint256",
          "name": "tokenId",
          "type": "uint256"
        },
        {
          "indexed": true,
          "internalType": "address",
          "name": "consumer",
          "type": "address"
        }
      ],
      "name": "WineSold",
      "type": "event"
    },
    {
      "inputs": [],
      "name": "CONSUMER_ROLE",
      "outputs": [
        {
          "internalType": "bytes32",
          "name": "",
          "type": "bytes32"
        }
      ],
      "stateMutability": "view",
      "type": "function"
    },
    {
      "inputs": [],
      "name": "DEFAULT_ADMIN_ROLE",
      "outputs": [
        {
          "internalType": "bytes32",
          "name": "",
          "type": "bytes32"
        }
      ],
      "stateMutability": "view",
      "type": "function"
    },
    {
      "inputs": [],
      "name": "DISTRIBUTOR_ROLE",
      "outputs": [
        {
          "internalType": "bytes32",
          "name": "",
          "type": "bytes32"
        }
      ],
      "stateMutability": "view",
      "type": "function"
    },
    {
      "inputs": [],
      "name": "REGULATOR_ROLE",
      "outputs": [
        {
          "internalType": "bytes32",
          "name": "",
          "type": "bytes32"
        }
      ],
      "stateMutability": "view",
      "type": "function"
    },
    {
      "inputs": [],
      "name": "RETAILER_ROLE",
      "outputs": [
        {
          "internalType": "bytes32",
          "name": "",
          "type": "bytes32"
        }
      ],
      "stateMutability": "view",
      "type": "function"
    },
    {
      "inputs": [],
      "name": "WINERY_ROLE",
      "outputs": [
        {
          "internalType": "bytes32",
          "name": "",
          "type": "bytes32"
        }
      ],
      "stateMutability": "view",
      "type": "function"
    },
    {
      "inputs": [
        {
          "internalType": "address",
          "name": "to",
          "type": "address"
        },
        {
          "internalType": "uint256",
          "name": "tokenId",
          "type": "uint256"
        }
      ],
      "name": "approve",
      "outputs": [],
      "stateMutability": "nonpayable",
      "type": "function"
    },
    {
      "inputs": [
        {
          "internalType": "address",
          "name": "owner",
          "type": "address"
        }
      ],
      "name": "balanceOf",
      "outputs": [
        {
          "internalType": "uint256",
          "name": "",
          "type": "uint256"
        }
      ],
      "stateMutability": "view",
      "type": "function"
    },
    {
      "inputs": [
        {
          "internalType": "uint256",
          "name": "tokenId",
          "type": "uint256"
        }
      ],
      "name": "buyWine",
      "outputs": [],
      "stateMutability": "payable",
      "type": "function"
    },
    {
      "inputs": [
        {
          "internalType": "string",
          "name": "tokenUri",
          "type": "string"
        }
      ],
      "name": "createWine",
      "outputs": [
        {
          "internalType": "uint256",
          "name": "",
          "type": "uint256"
        }
      ],
      "stateMutability": "nonpayable",
      "type": "function"
    },
    {
      "inputs": [
        {
          "internalType": "uint256",
          "name": "tokenId",
          "type": "uint256"
        }
      ],
      "name": "distributeWine",
      "outputs": [],
      "stateMutability": "nonpayable",
      "type": "function"
    },
    {
      "inputs": [
        {
          "internalType": "uint256",
          "name": "tokenId",
          "type": "uint256"
        }
      ],
      "name": "getApproved",
      "outputs": [
        {
          "internalType": "address",
          "name": "",
          "type": "address"
        }
      ],
      "stateMutability": "view",
      "type": "function"
    },
    {
      "inputs": [
        {
          "internalType": "bytes32",
          "name": "role",
          "type": "bytes32"
        }
      ],
      "name": "getRoleAdmin",
      "outputs": [
        {
          "internalType": "bytes32",
          "name": "",
          "type": "bytes32"
        }
      ],
      "stateMutability": "view",
      "type": "function"
    },
    {
      "inputs": [
        {
          "internalType": "uint256",
          "name": "tokenId",
          "type": "uint256"
        }
      ],
      "name": "getWine",
      "outputs": [
        {
          "components": [
            {
              "internalType": "uint256",
              "name": "tokenId",
              "type": "uint256"
            },
            {
              "internalType": "enum WineChain.State",
              "name": "state",
              "type": "uint8"
            },
            {
              "internalType": "address",
              "name": "winery",
              "type": "address"
            },
            {
              "internalType": "address",
              "name": "distributor",
              "type": "address"
            },
            {
              "internalType": "address",
              "name": "retailer",
              "type": "address"
            },
            {
              "internalType": "address",
              "name": "regulator",
              "type": "address"
            },
            {
              "internalType": "address",
              "name": "consumer",
              "type": "address"
            },
            {
              "internalType": "string",
              "name": "inspectionUri",
              "type": "string"
            }
          ],
          "internalType": "struct WineChain.Wine",
          "name": "",
          "type": "tuple"
        }
      ],
      "stateMutability": "view",
      "type": "function"
    },
    {
      "inputs": [
        {
          "internalType": "address",
          "name": "account",
          "type": "address"
        }
      ],
      "name": "grantConsumer",
      "outputs": [],
      "stateMutability": "nonpayable",
      "type": "function"
    },
    {
      "inputs": [
        {
          "internalType": "address",
          "name": "account",
          "type": "address"
        }
      ],
      "name": "grantDistributor",
      "outputs": [],
      "stateMutability": "nonpayable",
      "type": "function"
    },
    {
      "inputs": [
        {
          "internalType": "address",
          "name": "account",
          "type": "address"
        }
      ],
      "name": "grantRegulator",
      "outputs": [],
      "stateMutability": "nonpayable",
      "type": "function"
    },
    {
      "inputs": [
        {
          "internalType": "address",
          "name": "account",
          "type": "address"
        }
      ],
      "name": "grantRetailer",
      "outputs": [],
      "stateMutability": "nonpayable",
      "type": "function"
    },
    {
      "inputs": [
        {
          "internalType": "bytes32",
          "name": "role",
          "type": "bytes32"
        },
        {
          "internalType": "address",
          "name": "account",
          "type": "address"
        }
      ],
      "name": "grantRole",
      "outputs": [],
      "stateMutability": "nonpayable",
      "type": "function"
    },
    {
      "inputs": [
        {
          "internalType": "bytes32",
          "name": "role",
          "type": "bytes32"
        },
        {
          "internalType": "address",
          "name": "account",
          "type": "address"
        }
      ],
      "name": "hasRole",
      "outputs": [
        {
          "internalType": "bool",
          "name": "",
          "type": "bool"
        }
      ],
      "stateMutability": "view",
      "type": "function"
    },
    {
      "inputs": [
        {
          "internalType": "uint256",
          "name": "tokenId",
          "type": "uint256"
        },
        {
          "internalType": "bool",
          "name": "passed",
          "type": "bool"
        },
        {
          "internalType": "string",
          "name": "reportUri",
          "type": "string"
        }
      ],
      "name": "inspectWine",
      "outputs": [],
      "stateMutability": "nonpayable",
      "type": "function"
    },
    {
      "inputs": [
        {
          "internalType": "address",
          "name": "owner",
          "type": "address"
        },
        {
          "internalType": "address",
          "name": "operator",
          "type": "address"
        }
      ],
      "name": "isApprovedForAll",
      "outputs": [
        {
          "internalType": "bool",
          "name": "",
          "type": "bool"
        }
      ],
      "stateMutability": "view",
      "type": "function"
    },
    {
      "inputs": [],
      "name": "name",
      "outputs": [
        {
          "internalType": "string",
          "name": "",
          "type": "string"
        }
      ],
      "stateMutability": "view",
      "type": "function"
    },
    {
      "inputs": [
        {
          "internalType": "uint256",
          "name": "tokenId",
          "type": "uint256"
        }
      ],
      "name": "ownerOf",
      "outputs": [
        {
          "internalType": "address",
          "name": "",
          "type": "address"
        }
      ],
      "stateMutability": "view",
      "type": "function"
    },
    {
      "inputs": [
        {
          "internalType": "uint256",
          "name": "tokenId",
          "type": "uint256"
        }
      ],
      "name": "receiveWine",
      "outputs": [],
      "stateMutability": "nonpayable",
      "type": "function"
    },
    {
      "inputs": [
        {
          "internalType": "bytes32",
          "name": "role",
          "type": "bytes32"
        },
        {
          "internalType": "address",
          "name": "callerConfirmation",
          "type": "address"
        }
      ],
      "name": "renounceRole",
      "outputs": [],
      "stateMutability": "nonpayable",
      "type": "function"
    },
    {
      "inputs": [
        {
          "internalType": "bytes32",
          "name": "role",
          "type": "bytes32"
        },
        {
          "internalType": "address",
          "name": "account",
          "type": "address"
        }
      ],
      "name": "revokeRole",
      "outputs": [],
      "stateMutability": "nonpayable",
      "type": "function"
    },
    {
      "inputs": [
        {
          "internalType": "address",
          "name": "from",
          "type": "address"
        },
        {
          "internalType": "address",
          "name": "to",
          "type": "address"
        },
        {
          "internalType": "uint256",
          "name": "tokenId",
          "type": "uint256"
        }
      ],
      "name": "safeTransferFrom",
      "outputs": [],
      "stateMutability": "nonpayable",
      "type": "function"
    },
    {
      "inputs": [
        {
          "internalType": "address",
          "name": "from",
          "type": "address"
        },
        {
          "internalType": "address",
          "name": "to",
          "type": "address"
        },
        {
          "internalType": "uint256",
          "name": "tokenId",
          "type": "uint256"
        },
        {
          "internalType": "bytes",
          "name": "data",
          "type": "bytes"
        }
      ],
      "name": "safeTransferFrom",
      "outputs": [],
      "stateMutability": "nonpayable",
      "type": "function"
    },
    {
      "inputs": [
        {
          "internalType": "address",
          "name": "operator",
          "type": "address"
        },
        {
          "internalType": "bool",
          "name": "approved",
          "type": "bool"
        }
      ],
      "name": "setApprovalForAll",
      "outputs": [],
      "stateMutability": "nonpayable",
      "type": "function"
    },
    {
      "inputs": [
        {
          "internalType": "bytes4",
          "name": "interfaceId",
          "type": "bytes4"
        }
      ],
      "name": "supportsInterface",
      "outputs": [
        {
          "internalType": "bool",
          "name": "",
          "type": "bool"
        }
      ],
      "stateMutability": "view",
      "type": "function"
    },
    {
      "inputs": [],
      "name": "symbol",
      "outputs": [
        {
          "internalType": "string",
          "name": "",
          "type": "string"
        }
      ],
      "stateMutability": "view",
      "type": "function"
    },
    {
      "inputs": [
        {
          "internalType": "uint256",
          "name": "tokenId",
          "type": "uint256"
        }
      ],
      "name": "tokenURI",
      "outputs": [
        {
          "internalType": "string",
          "name": "",
          "type": "string"
        }
      ],
      "stateMutability": "view",
      "type": "function"
    },
    {
      "inputs": [
        {
          "internalType": "address",
          "name": "from",
          "type": "address"
        },
        {
          "internalType": "address",
          "name": "to",
          "type": "address"
        },
        {
          "internalType": "uint256",
          "name": "tokenId",
          "type": "uint256"
        }
      ],
      "name": "transferFrom",
      "outputs": [],
      "stateMutability": "nonpayable",
      "type": "function"
    },
    {
      "inputs": [
        {
          "internalType": "uint256",
          "name": "",
          "type": "uint256"
        }
      ],
      "name": "wines",
      "outputs": [
        {
          "internalType": "uint256",
          "name": "tokenId",
          "type": "uint256"
        },
        {
          "internalType": "enum WineChain.State",
          "name": "state",
          "type": "uint8"
        },
        {
          "internalType": "address",
          "name": "winery",
          "type": "address"
        },
        {
          "internalType": "address",
          "name": "distributor",
          "type": "address"
        },
        {
          "internalType": "address",
          "name": "retailer",
          "type": "address"
        },
        {
          "internalType": "address",
          "name": "regulator",
          "type": "address"
        },
        {
          "internalType": "address",
          "name": "consumer",
          "type": "address"
        },
        {
          "internalType": "string",
          "name": "inspectionUri",
          "type": "string"
        }
      ],
      "stateMutability": "view",
      "type": "function"
    }
  ],
  "bytecode": "0x608060405234801561001057600080fd5b506040518060400160405280600981526020017f57696e65436861696e00000000000000000000000000000000000000000000008152506040518060400160405280600481526020017f57494e4500000000000000000000000000000000000000000000000000000000815250816000908161008c91906104aa565b50806001908161009c91906104aa565b5050506100b26000801b336100e960201b60201c565b506100e37f7df5d84b008bada7ebf3cb696b55e4d07d278c6155d14dae907b19d95fa89f4c336100e960201b60201c565b5061057c565b60006100fb83836101e760201b60201c565b6101dc5760016007600085815260200190815260200160002060000160008473ffffffffffffffffffffffffffffffffffffffff1673ffffffffffffffffffffffffffffffffffffffff16815260200190815260200160002060006101000a81548160ff02191690831515021790555061017961025260201b60201c565b73ffffffffffffffffffffffffffffffffffffffff168273ffffffffffffffffffffffffffffffffffffffff16847f2f8788117e7eff1d82e926ec794901d17c78024a50270940304540a733656f0d60405160405180910390a4600190506101e1565b600090505b92915050565b60006007600084815260200190815260200160002060000160008373ffffffffffffffffffffffffffffffffffffffff1673ffffffffffffffffffffffffffffffffffffffff16815260200190815260200160002060009054906101000a900460ff16905092915050565b600033905090565b600081519050919050565b7f4e487b7100000000000000000000000000000000000000000000000000000000600052604160045260246000fd5b7f4e487b7100000000000000000000000000000000000000000000000000000000600052602260045260246000fd5b600060028204905060018216806102db57607f821691505b6020821081036102ee576102ed610294565b5b50919050565b60008190508160005260206000209050919050565b60006020601f8301049050919050565b600082821b905092915050565b6000600883026103567fffffffffffffffffffffffffffffffffffffffffffffffffffffffffffffffff82610319565b6103608683610319565b95508019841693508086168417925050509392505050565b6000819050919050565b6000819050919050565b60006103a76103a261039d84610378565b610382565b610378565b9050919050565b6000819050919050565b6103c18361038c565b6103d56103cd826103ae565b848454610326565b825550505050565b600090565b6103ea6103dd565b6103f58184846103b8565b505050565b5b818110156104195761040e6000826103e2565b6001810190506103fb565b5050565b601f82111561045e5761042f816102f4565b61043884610309565b81016020851015610447578190505b61045b61045385610309565b8301826103fa565b50505b505050565b600082821c905092915050565b600061048160001984600802610463565b1980831691505092915050565b600061049a8383610470565b9150826002028217905092915050565b6104b38261025a565b67ffffffffffffffff8111156104cc576104cb610265565b5b6104d682546102c3565b6104e182828561041d565b600060209050601f8311600181146105145760008415610502578287015190505b61050c858261048e565b865550610574565b601f198416610522866102f4565b60005b8281101561054a57848901518255600182019150602085019450602081019050610525565b868310156105675784890151610563601f891682610470565b8355505b6001600288020188555050505b505050505050565b61470b8061058b6000396000f3fe6080604052600436106102045760003560e01c806353c27f6b11610118578063a217fddf116100a0578063cbcf23491161006f578063cbcf2349146107b4578063d1e74044146107d0578063d547741f146107f9578063e985e9c514610822578063f0bd87cc1461085f57610204565b8063a217fddf146106fa578063a22cb46514610725578063b88d4fde1461074e578063c87b56dd1461077757610204565b80636e84aa94116100e75780636e84aa94146105db57806370a08231146106185780637278fa9a1461065557806391d148541461069257806395d89b41146106cf57610204565b806353c27f6b14610523578063612dcc251461054c5780636352211e1461057557806363ca21d7146105b257610204565b80632148ee5d1161019b5780632c2f739a1161016a5780632c2f739a146104545780632f2ff15d1461047d57806336568abe146104a657806342842e0e146104cf5780634bc02da6146104f857610204565b80632148ee5d1461039c57806323b872dd146103c5578063248a9ca3146103ee57806325c991911461042b57610204565b806313351db3116101d757806313351db3146102d7578063144bf5891461031b5780631bc0ffd6146103465780632115e7bf1461037157610204565b806301ffc9a71461020957806306fdde0314610246578063081812fc14610271578063095ea7b3146102ae575b600080fd5b34801561021557600080fd5b50610230600480360381019061022b919061348b565b61088a565b60405161023d91906134d3565b60405180910390f35b34801561025257600080fd5b5061025b61089c565b604051610268919061357e565b60405180910390f35b34801561027d57600080fd5b50610298600480360381019061029391906135d6565b61092e565b6040516102a59190613644565b60405180910390f35b3480156102ba57600080fd5b506102d560048036038101906102d0919061368b565b61094a565b005b3480156102e357600080fd5b506102fe60048036038101906102f991906135d6565b610960565b604051610312989796959493929190613751565b60405180910390f35b34801561032757600080fd5b50610330610add565b60405161033d91906137ef565b60405180910390f35b34801561035257600080fd5b5061035b610b01565b60405161036891906137ef565b60405180910390f35b34801561037d57600080fd5b50610386610b25565b60405161039391906137ef565b60405180910390f35b3480156103a857600080fd5b506103c360048036038101906103be919061380a565b610b49565b005b3480156103d157600080fd5b506103ec60048036038101906103e79190613837565b610b84565b005b3480156103fa57600080fd5b50610415600480360381019061041091906138b6565b610c86565b60405161042291906137ef565b60405180910390f35b34801561043757600080fd5b50610452600480360381019061044d919061380a565b610ca6565b005b34801561046057600080fd5b5061047b6004803603810190610476919061380a565b610ce1565b005b34801561048957600080fd5b506104a4600480360381019061049f91906138e3565b610d1c565b005b3480156104b257600080fd5b506104cd60048036038101906104c891906138e3565b610d3e565b005b3480156104db57600080fd5b506104f660048036038101906104f19190613837565b610db9565b005b34801561050457600080fd5b5061050d610dd9565b60405161051a91906137ef565b60405180910390f35b34801561052f57600080fd5b5061054a600480360381019061054591906139b4565b610dfd565b005b34801561055857600080fd5b50610573600480360381019061056e91906135d6565b61106d565b005b34801561058157600080fd5b5061059c600480360381019061059791906135d6565b61128c565b6040516105a99190613644565b60405180910390f35b3480156105be57600080fd5b506105d960048036038101906105d4919061380a565b61129e565b005b3480156105e757600080fd5b5061060260048036038101906105fd9190613b58565b6112d9565b60405161060f9190613ba1565b60405180910390f35b34801561062457600080fd5b5061063f600480360381019061063a919061380a565b611622565b60405161064c9190613ba1565b60405180910390f35b34801561066157600080fd5b5061067c600480360381019061067791906135d6565b6116dc565b6040516106899190613ce3565b60405180910390f35b34801561069e57600080fd5b506106b960048036038101906106b491906138e3565b61198f565b6040516106c691906134d3565b60405180910390f35b3480156106db57600080fd5b506106e46119fa565b6040516106f1919061357e565b60405180910390f35b34801561070657600080fd5b5061070f611a8c565b60405161071c91906137ef565b60405180910390f35b34801561073157600080fd5b5061074c60048036038101906107479190613d05565b611a93565b005b34801561075a57600080fd5b5061077560048036038101906107709190613de6565b611aa9565b005b34801561078357600080fd5b5061079e600480360381019061079991906135d6565b611ace565b6040516107ab919061357e565b60405180910390f35b6107ce60048036038101906107c991906135d6565b611ae0565b005b3480156107dc57600080fd5b506107f760048036038101906107f291906135d6565b611d05565b005b34801561080557600080fd5b50610820600480360381019061081b91906138e3565b611f24565b005b34801561082e57600080fd5b5061084960048036038101906108449190613e69565b611f46565b60405161085691906134d3565b60405180910390f35b34801561086b57600080fd5b50610874611fda565b60405161088191906137ef565b60405180910390f35b600061089582611ffe565b9050919050565b6060600080546108ab90613ed8565b80601f01602080910402602001604051908101604052809291908181526020018280546108d790613ed8565b80156109245780601f106108f957610100808354040283529160200191610924565b820191906000526020600020905b81548152906001019060200180831161090757829003601f168201915b5050505050905090565b600061093982612078565b5061094382612100565b9050919050565b61095c828261095761213d565b612145565b5050565b60096020528060005260406000206000915090508060000154908060010160009054906101000a900460ff16908060010160019054906101000a900473ffffffffffffffffffffffffffffffffffffffff16908060020160009054906101000a900473ffffffffffffffffffffffffffffffffffffffff16908060030160009054906101000a900473ffffffffffffffffffffffffffffffffffffffff16908060040160009054906101000a900473ffffffffffffffffffffffffffffffffffffffff16908060050160009054906101000a900473ffffffffffffffffffffffffffffffffffffffff1690806006018054610a5a90613ed8565b80601f0160208091040260200160405190810160405280929190818152602001828054610a8690613ed8565b8015610ad35780601f10610aa857610100808354040283529160200191610ad3565b820191906000526020600020905b815481529060010190602001808311610ab657829003601f168201915b5050505050905088565b7f20b5f7ac978e5d6199de06401411960dfa81d2f762655f6206bdc61d46fc19e681565b7f7df5d84b008bada7ebf3cb696b55e4d07d278c6155d14dae907b19d95fa89f4c81565b7f2a5f906c256a5d799494fcd066e1f6c077689de1cdb65052a1624de4bace99bf81565b6000801b610b5681612157565b610b807f9d56108290ea0bc9c5c59c3ad357dca9d1b29ed7f3ae1443bef2fa2159bdf5e883610d1c565b5050565b600073ffffffffffffffffffffffffffffffffffffffff168273ffffffffffffffffffffffffffffffffffffffff1603610bf65760006040517f64a0ae92000000000000000000000000000000000000000000000000000000008152600401610bed9190613644565b60405180910390fd5b6000610c0a8383610c0561213d565b61216b565b90508373ffffffffffffffffffffffffffffffffffffffff168173ffffffffffffffffffffffffffffffffffffffff1614610c80578382826040517f64283d7b000000000000000000000000000000000000000000000000000000008152600401610c7793929190613f09565b60405180910390fd5b50505050565b600060076000838152602001908152602001600020600101549050919050565b6000801b610cb381612157565b610cdd7f2a5f906c256a5d799494fcd066e1f6c077689de1cdb65052a1624de4bace99bf83610d1c565b5050565b6000801b610cee81612157565b610d187f20b5f7ac978e5d6199de06401411960dfa81d2f762655f6206bdc61d46fc19e683610d1c565b5050565b610d2582610c86565b610d2e81612157565b610d388383612385565b50505050565b610d4661213d565b73ffffffffffffffffffffffffffffffffffffffff168173ffffffffffffffffffffffffffffffffffffffff1614610daa576040517f6697b23200000000000000000000000000000000000000000000000000000000815260040160405180910390fd5b610db48282612477565b505050565b610dd483838360405180602001604052806000815250611aa9565b505050565b7f9d56108290ea0bc9c5c59c3ad357dca9d1b29ed7f3ae1443bef2fa2159bdf5e881565b7f20b5f7ac978e5d6199de06401411960dfa81d2f762655f6206bdc61d46fc19e6610e2781612157565b60006009600087815260200190815260200160002090508060030160009054906101000a900473ffffffffffffffffffffffffffffffffffffffff1673ffffffffffffffffffffffffffffffffffffffff16610e828761128c565b73ffffffffffffffffffffffffffffffffffffffff1614610ed8576040517f08c379a0000000000000000000000000000000000000000000000000000000008152600401610ecf90613f8c565b60405180910390fd5b60026004811115610eec57610eeb6136da565b5b8160010160009054906101000a900460ff166004811115610f1057610f0f6136da565b5b14610f50576040517f08c379a0000000000000000000000000000000000000000000000000000000008152600401610f4790613ff8565b60405180910390fd5b84610f90576040517f08c379a0000000000000000000000000000000000000000000000000000000008152600401610f8790614064565b60405180910390fd5b338160040160006101000a81548173ffffffffffffffffffffffffffffffffffffffff021916908373ffffffffffffffffffffffffffffffffffffffff1602179055508383826006019182610fe692919061423b565b5060038160010160006101000a81548160ff0219169083600481111561100f5761100e6136da565b5b02179055503373ffffffffffffffffffffffffffffffffffffffff16867f11610372bd5b102938ef5487fbcb618f785927468d60a6b28f162c40572abb29868660405161105d929190614338565b60405180910390a3505050505050565b7ffbd454f36a7e1a388bd6fc3ab10d434aa4578f811acbbcf33afb1c697486313c61109781612157565b60006009600084815260200190815260200160002090508060010160019054906101000a900473ffffffffffffffffffffffffffffffffffffffff1673ffffffffffffffffffffffffffffffffffffffff166110f28461128c565b73ffffffffffffffffffffffffffffffffffffffff1614611148576040517f08c379a000000000000000000000000000000000000000000000000000000000815260040161113f90613f8c565b60405180910390fd5b6000600481111561115c5761115b6136da565b5b8160010160009054906101000a900460ff1660048111156111805761117f6136da565b5b146111c0576040517f08c379a00000000000000000000000000000000000000000000000000000000081526004016111b790613ff8565b60405180910390fd5b6111d36111cc8461128c565b3385610db9565b338160020160006101000a81548173ffffffffffffffffffffffffffffffffffffffff021916908373ffffffffffffffffffffffffffffffffffffffff16021790555060018160010160006101000a81548160ff0219169083600481111561123e5761123d6136da565b5b02179055503373ffffffffffffffffffffffffffffffffffffffff16837f0d70a9d59315acaddc83f2e44f7fab36a77b05e01e601ddb148effc5c383a42560405160405180910390a3505050565b600061129782612078565b9050919050565b6000801b6112ab81612157565b6112d57ffbd454f36a7e1a388bd6fc3ab10d434aa4578f811acbbcf33afb1c697486313c83610d1c565b5050565b60007f7df5d84b008bada7ebf3cb696b55e4d07d278c6155d14dae907b19d95fa89f4c61130581612157565b60006008600081546113169061438b565b9190508190559050611328338261256a565b6113328185612588565b60405180610100016040528082815260200160006004811115611358576113576136da565b5b81526020013373ffffffffffffffffffffffffffffffffffffffff168152602001600073ffffffffffffffffffffffffffffffffffffffff168152602001600073ffffffffffffffffffffffffffffffffffffffff168152602001600073ffffffffffffffffffffffffffffffffffffffff168152602001600073ffffffffffffffffffffffffffffffffffffffff16815260200160405180602001604052806000815250815250600960008381526020019081526020016000206000820151816000015560208201518160010160006101000a81548160ff02191690836004811115611448576114476136da565b5b021790555060408201518160010160016101000a81548173ffffffffffffffffffffffffffffffffffffffff021916908373ffffffffffffffffffffffffffffffffffffffff16021790555060608201518160020160006101000a81548173ffffffffffffffffffffffffffffffffffffffff021916908373ffffffffffffffffffffffffffffffffffffffff16021790555060808201518160030160006101000a81548173ffffffffffffffffffffffffffffffffffffffff021916908373ffffffffffffffffffffffffffffffffffffffff16021790555060a08201518160040160006101000a81548173ffffffffffffffffffffffffffffffffffffffff021916908373ffffffffffffffffffffffffffffffffffffffff16021790555060c08201518160050160006101000a81548173ffffffffffffffffffffffffffffffffffffffff021916908373ffffffffffffffffffffffffffffffffffffffff16021790555060e08201518160060190816115c591906143d3565b509050503373ffffffffffffffffffffffffffffffffffffffff16817face2423d95ad1b45e3e123230d7d662ba9051b2f90f0b59b5c3133aa6dac28b386604051611610919061357e565b60405180910390a38092505050919050565b60008073ffffffffffffffffffffffffffffffffffffffff168273ffffffffffffffffffffffffffffffffffffffff16036116955760006040517f89c62b6400000000000000000000000000000000000000000000000000000000815260040161168c9190613644565b60405180910390fd5b600360008373ffffffffffffffffffffffffffffffffffffffff1673ffffffffffffffffffffffffffffffffffffffff168152602001908152602001600020549050919050565b6116e461335a565b6009600083815260200190815260200160002060405180610100016040529081600082015481526020016001820160009054906101000a900460ff166004811115611732576117316136da565b5b6004811115611744576117436136da565b5b81526020016001820160019054906101000a900473ffffffffffffffffffffffffffffffffffffffff1673ffffffffffffffffffffffffffffffffffffffff1673ffffffffffffffffffffffffffffffffffffffff1681526020016002820160009054906101000a900473ffffffffffffffffffffffffffffffffffffffff1673ffffffffffffffffffffffffffffffffffffffff1673ffffffffffffffffffffffffffffffffffffffff1681526020016003820160009054906101000a900473ffffffffffffffffffffffffffffffffffffffff1673ffffffffffffffffffffffffffffffffffffffff1673ffffffffffffffffffffffffffffffffffffffff1681526020016004820160009054906101000a900473ffffffffffffffffffffffffffffffffffffffff1673ffffffffffffffffffffffffffffffffffffffff1673ffffffffffffffffffffffffffffffffffffffff1681526020016005820160009054906101000a900473ffffffffffffffffffffffffffffffffffffffff1673ffffffffffffffffffffffffffffffffffffffff1673ffffffffffffffffffffffffffffffffffffffff16815260200160068201805461190690613ed8565b80601f016020809104026020016040519081016040528092919081815260200182805461193290613ed8565b801561197f5780601f106119545761010080835404028352916020019161197f565b820191906000526020600020905b81548152906001019060200180831161196257829003601f168201915b5050505050815250509050919050565b60006007600084815260200190815260200160002060000160008373ffffffffffffffffffffffffffffffffffffffff1673ffffffffffffffffffffffffffffffffffffffff16815260200190815260200160002060009054906101000a900460ff16905092915050565b606060018054611a0990613ed8565b80601f0160208091040260200160405190810160405280929190818152602001828054611a3590613ed8565b8015611a825780601f10611a5757610100808354040283529160200191611a82565b820191906000526020600020905b815481529060010190602001808311611a6557829003601f168201915b5050505050905090565b6000801b81565b611aa5611a9e61213d565b83836125e4565b5050565b611ab4848484610b84565b611ac8611abf61213d565b85858585612753565b50505050565b6060611ad982612904565b9050919050565b7f9d56108290ea0bc9c5c59c3ad357dca9d1b29ed7f3ae1443bef2fa2159bdf5e8611b0a81612157565b60006009600084815260200190815260200160002090508060030160009054906101000a900473ffffffffffffffffffffffffffffffffffffffff1673ffffffffffffffffffffffffffffffffffffffff16611b658461128c565b73ffffffffffffffffffffffffffffffffffffffff1614611bbb576040517f08c379a0000000000000000000000000000000000000000000000000000000008152600401611bb290613f8c565b60405180910390fd5b60036004811115611bcf57611bce6136da565b5b8160010160009054906101000a900460ff166004811115611bf357611bf26136da565b5b14611c33576040517f08c379a0000000000000000000000000000000000000000000000000000000008152600401611c2a906144f1565b60405180910390fd5b6000611c3e8461128c565b9050611c4b813386610db9565b338260050160006101000a81548173ffffffffffffffffffffffffffffffffffffffff021916908373ffffffffffffffffffffffffffffffffffffffff16021790555060048260010160006101000a81548160ff02191690836004811115611cb657611cb56136da565b5b02179055503373ffffffffffffffffffffffffffffffffffffffff16847fe8368a18c3e152ebe6e85140ea8016fd8e372b80c98f2e803b15f63c3a0b4d1060405160405180910390a350505050565b7f2a5f906c256a5d799494fcd066e1f6c077689de1cdb65052a1624de4bace99bf611d2f81612157565b60006009600084815260200190815260200160002090508060020160009054906101000a900473ffffffffffffffffffffffffffffffffffffffff1673ffffffffffffffffffffffffffffffffffffffff16611d8a8461128c565b73ffffffffffffffffffffffffffffffffffffffff1614611de0576040517f08c379a0000000000000000000000000000000000000000000000000000000008152600401611dd790613f8c565b60405180910390fd5b60016004811115611df457611df36136da565b5b8160010160009054906101000a900460ff166004811115611e1857611e176136da565b5b14611e58576040517f08c379a0000000000000000000000000000000000000000000000000000000008152600401611e4f90613ff8565b60405180910390fd5b611e6b611e648461128c565b3385610db9565b338160030160006101000a81548173ffffffffffffffffffffffffffffffffffffffff021916908373ffffffffffffffffffffffffffffffffffffffff16021790555060028160010160006101000a81548160ff02191690836004811115611ed657611ed56136da565b5b02179055503373ffffffffffffffffffffffffffffffffffffffff16837f43acd955ce18023cf48c801ada1b4fe6e0f3b40e9273e39cc97cb135ea8c84da60405160405180910390a3505050565b611f2d82610c86565b611f3681612157565b611f408383612477565b50505050565b6000600560008473ffffffffffffffffffffffffffffffffffffffff1673ffffffffffffffffffffffffffffffffffffffff16815260200190815260200160002060008373ffffffffffffffffffffffffffffffffffffffff1673ffffffffffffffffffffffffffffffffffffffff16815260200190815260200160002060009054906101000a900460ff16905092915050565b7ffbd454f36a7e1a388bd6fc3ab10d434aa4578f811acbbcf33afb1c697486313c81565b60007f7965db0b000000000000000000000000000000000000000000000000000000007bffffffffffffffffffffffffffffffffffffffffffffffffffffffff1916827bffffffffffffffffffffffffffffffffffffffffffffffffffffffff19161480612071575061207082612a17565b5b9050919050565b60008061208483612a78565b9050600073ffffffffffffffffffffffffffffffffffffffff168173ffffffffffffffffffffffffffffffffffffffff16036120f757826040517f7e2732890000000000000000000000000000000000000000000000000000000081526004016120ee9190613ba1565b60405180910390fd5b80915050919050565b60006004600083815260200190815260200160002060009054906101000a900473ffffffffffffffffffffffffffffffffffffffff169050919050565b600033905090565b6121528383836001612ab5565b505050565b6121688161216361213d565b612c7a565b50565b60008061217784612a78565b9050600073ffffffffffffffffffffffffffffffffffffffff168373ffffffffffffffffffffffffffffffffffffffff16146121b9576121b8818486612ccb565b5b600073ffffffffffffffffffffffffffffffffffffffff168173ffffffffffffffffffffffffffffffffffffffff161461224a576121fb600085600080612ab5565b6001600360008373ffffffffffffffffffffffffffffffffffffffff1673ffffffffffffffffffffffffffffffffffffffff168152602001908152602001600020600082825403925050819055505b600073ffffffffffffffffffffffffffffffffffffffff168573ffffffffffffffffffffffffffffffffffffffff16146122cd576001600360008773ffffffffffffffffffffffffffffffffffffffff1673ffffffffffffffffffffffffffffffffffffffff168152602001908152602001600020600082825401925050819055505b846002600086815260200190815260200160002060006101000a81548173ffffffffffffffffffffffffffffffffffffffff021916908373ffffffffffffffffffffffffffffffffffffffff160217905550838573ffffffffffffffffffffffffffffffffffffffff168273ffffffffffffffffffffffffffffffffffffffff167fddf252ad1be2c89b69c2b068fc378daa952ba7f163c4a11628f55a4df523b3ef60405160405180910390a4809150509392505050565b6000612391838361198f565b61246c5760016007600085815260200190815260200160002060000160008473ffffffffffffffffffffffffffffffffffffffff1673ffffffffffffffffffffffffffffffffffffffff16815260200190815260200160002060006101000a81548160ff02191690831515021790555061240961213d565b73ffffffffffffffffffffffffffffffffffffffff168273ffffffffffffffffffffffffffffffffffffffff16847f2f8788117e7eff1d82e926ec794901d17c78024a50270940304540a733656f0d60405160405180910390a460019050612471565b600090505b92915050565b6000612483838361198f565b1561255f5760006007600085815260200190815260200160002060000160008473ffffffffffffffffffffffffffffffffffffffff1673ffffffffffffffffffffffffffffffffffffffff16815260200190815260200160002060006101000a81548160ff0219169083151502179055506124fc61213d565b73ffffffffffffffffffffffffffffffffffffffff168273ffffffffffffffffffffffffffffffffffffffff16847ff6391f5c32d9c69d2a47ea670b442974b53935d1edc7fd64eb21e047a839171b60405160405180910390a460019050612564565b600090505b92915050565b612584828260405180602001604052806000815250612d8f565b5050565b806006600084815260200190815260200160002090816125a891906143d3565b507ff8e1a15aba9398e019f0b49df1a4fde98ee17ae345cb5f6b5e2c27f5033e8ce7826040516125d89190613ba1565b60405180910390a15050565b600073ffffffffffffffffffffffffffffffffffffffff168273ffffffffffffffffffffffffffffffffffffffff160361265557816040517f5b08ba1800000000000000000000000000000000000000000000000000000000815260040161264c9190613644565b60405180910390fd5b80600560008573ffffffffffffffffffffffffffffffffffffffff1673ffffffffffffffffffffffffffffffffffffffff16815260200190815260200160002060008473ffffffffffffffffffffffffffffffffffffffff1673ffffffffffffffffffffffffffffffffffffffff16815260200190815260200160002060006101000a81548160ff0219169083151502179055508173ffffffffffffffffffffffffffffffffffffffff168373ffffffffffffffffffffffffffffffffffffffff167f17307eab39ab6107e8899845ad3d59bd9653f200f220920489ca2b5937696c318360405161274691906134d3565b60405180910390a3505050565b60008373ffffffffffffffffffffffffffffffffffffffff163b11156128fd578273ffffffffffffffffffffffffffffffffffffffff1663150b7a02868685856040518563ffffffff1660e01b81526004016127b29493929190614566565b6020604051808303816000875af19250505080156127ee57506040513d601f19601f820116820180604052508101906127eb91906145c7565b60015b612872573d806000811461281e576040519150601f19603f3d011682016040523d82523d6000602084013e612823565b606091505b50600081510361286a57836040517f64a0ae920000000000000000000000000000000000000000000000000000000081526004016128619190613644565b60405180910390fd5b805160208201fd5b63150b7a0260e01b7bffffffffffffffffffffffffffffffffffffffffffffffffffffffff1916817bffffffffffffffffffffffffffffffffffffffffffffffffffffffff1916146128fb57836040517f64a0ae920000000000000000000000000000000000000000000000000000000081526004016128f29190613644565b60405180910390fd5b505b5050505050565b606061290f82612078565b50600060066000848152602001908152602001600020805461293090613ed8565b80601f016020809104026020016040519081016040528092919081815260200182805461295c90613ed8565b80156129a95780601f1061297e576101008083540402835291602001916129a9565b820191906000526020600020905b81548152906001019060200180831161298c57829003601f168201915b5050505050905060006129ba612db3565b905060008151036129cf578192505050612a12565b600082511115612a045780826040516020016129ec929190614630565b60405160208183030381529060405292505050612a12565b612a0d84612dca565b925050505b919050565b6000634906490660e01b7bffffffffffffffffffffffffffffffffffffffffffffffffffffffff1916827bffffffffffffffffffffffffffffffffffffffffffffffffffffffff19161480612a715750612a7082612e33565b5b9050919050565b60006002600083815260200190815260200160002060009054906101000a900473ffffffffffffffffffffffffffffffffffffffff169050919050565b8080612aee5750600073ffffffffffffffffffffffffffffffffffffffff168273ffffffffffffffffffffffffffffffffffffffff1614155b15612c22576000612afe84612078565b9050600073ffffffffffffffffffffffffffffffffffffffff168373ffffffffffffffffffffffffffffffffffffffff1614158015612b6957508273ffffffffffffffffffffffffffffffffffffffff168173ffffffffffffffffffffffffffffffffffffffff1614155b8015612b7c5750612b7a8184611f46565b155b15612bbe57826040517fa9fbf51f000000000000000000000000000000000000000000000000000000008152600401612bb59190613644565b60405180910390fd5b8115612c2057838573ffffffffffffffffffffffffffffffffffffffff168273ffffffffffffffffffffffffffffffffffffffff167f8c5be1e5ebec7d5bd14f71427d1e84f3dd0314c0f7b2291e5b200ac8c7c3b92560405160405180910390a45b505b836004600085815260200190815260200160002060006101000a81548173ffffffffffffffffffffffffffffffffffffffff021916908373ffffffffffffffffffffffffffffffffffffffff16021790555050505050565b612c84828261198f565b612cc75780826040517fe2517d3f000000000000000000000000000000000000000000000000000000008152600401612cbe929190614654565b60405180910390fd5b5050565b612cd6838383612f15565b612d8a57600073ffffffffffffffffffffffffffffffffffffffff168373ffffffffffffffffffffffffffffffffffffffff1603612d4b57806040517f7e273289000000000000000000000000000000000000000000000000000000008152600401612d429190613ba1565b60405180910390fd5b81816040517f177e802f000000000000000000000000000000000000000000000000000000008152600401612d8192919061467d565b60405180910390fd5b505050565b612d998383612fd6565b612dae612da461213d565b6000858585612753565b505050565b606060405180602001604052806000815250905090565b6060612dd582612078565b506000612de0612db3565b90506000815111612e005760405180602001604052806000815250612e2b565b80612e0a846130cf565b604051602001612e1b929190614630565b6040516020818303038152906040525b915050919050565b60007f80ac58cd000000000000000000000000000000000000000000000000000000007bffffffffffffffffffffffffffffffffffffffffffffffffffffffff1916827bffffffffffffffffffffffffffffffffffffffffffffffffffffffff19161480612efe57507f5b5e139f000000000000000000000000000000000000000000000000000000007bffffffffffffffffffffffffffffffffffffffffffffffffffffffff1916827bffffffffffffffffffffffffffffffffffffffffffffffffffffffff1916145b80612f0e5750612f0d8261319d565b5b9050919050565b60008073ffffffffffffffffffffffffffffffffffffffff168373ffffffffffffffffffffffffffffffffffffffff1614158015612fcd57508273ffffffffffffffffffffffffffffffffffffffff168473ffffffffffffffffffffffffffffffffffffffff161480612f8e5750612f8d8484611f46565b5b80612fcc57508273ffffffffffffffffffffffffffffffffffffffff16612fb483612100565b73ffffffffffffffffffffffffffffffffffffffff16145b5b90509392505050565b600073ffffffffffffffffffffffffffffffffffffffff168273ffffffffffffffffffffffffffffffffffffffff16036130485760006040517f64a0ae9200000000000000000000000000000000000000000000000000000000815260040161303f9190613644565b60405180910390fd5b60006130568383600061216b565b9050600073ffffffffffffffffffffffffffffffffffffffff168173ffffffffffffffffffffffffffffffffffffffff16146130ca5760006040517f73c6ac6e0000000000000000000000000000000000000000000000000000000081526004016130c19190613644565b60405180910390fd5b505050565b6060600060016130de84613207565b01905060008167ffffffffffffffff8111156130fd576130fc613a2d565b5b6040519080825280601f01601f19166020018201604052801561312f5781602001600182028036833780820191505090505b509050600082602083010190505b600115613192578080600190039150507f3031323334353637383961626364656600000000000000000000000000000000600a86061a8153600a8581613186576131856146a6565b5b0494506000850361313d575b819350505050919050565b60007f01ffc9a7000000000000000000000000000000000000000000000000000000007bffffffffffffffffffffffffffffffffffffffffffffffffffffffff1916827bffffffffffffffffffffffffffffffffffffffffffffffffffffffff1916149050919050565b600080600090507a184f03e93ff9f4daa797ed6e38ed64bf6a1f0100000000000000008310613265577a184f03e93ff9f4daa797ed6e38ed64bf6a1f010000000000000000838161325b5761325a6146a6565b5b0492506040810190505b6d04ee2d6d415b85acef810000000083106132a2576d04ee2d6d415b85acef81000000008381613298576132976146a6565b5b0492506020810190505b662386f26fc1000083106132d157662386f26fc1000083816132c7576132c66146a6565b5b0492506010810190505b6305f5e10083106132fa576305f5e10083816132f0576132ef6146a6565b5b0492506008810190505b612710831061331f576127108381613315576133146146a6565b5b0492506004810190505b606483106133425760648381613338576133376146a6565b5b0492506002810190505b600a8310613351576001810190505b80915050919050565b6040518061010001604052806000815260200160006004811115613381576133806136da565b5b8152602001600073ffffffffffffffffffffffffffffffffffffffff168152602001600073ffffffffffffffffffffffffffffffffffffffff168152602001600073ffffffffffffffffffffffffffffffffffffffff168152602001600073ffffffffffffffffffffffffffffffffffffffff168152602001600073ffffffffffffffffffffffffffffffffffffffff168152602001606081525090565b6000604051905090565b600080fd5b600080fd5b60007fffffffff0000000000000000000000000000000000000000000000000000000082169050919050565b61346881613433565b811461347357600080fd5b50565b6000813590506134858161345f565b92915050565b6000602082840312156134a1576134a0613429565b5b60006134af84828501613476565b91505092915050565b60008115159050919050565b6134cd816134b8565b82525050565b60006020820190506134e860008301846134c4565b92915050565b600081519050919050565b600082825260208201905092915050565b60005b8381101561352857808201518184015260208101905061350d565b60008484015250505050565b6000601f19601f8301169050919050565b6000613550826134ee565b61355a81856134f9565b935061356a81856020860161350a565b61357381613534565b840191505092915050565b600060208201905081810360008301526135988184613545565b905092915050565b6000819050919050565b6135b3816135a0565b81146135be57600080fd5b50565b6000813590506135d0816135aa565b92915050565b6000602082840312156135ec576135eb613429565b5b60006135fa848285016135c1565b91505092915050565b600073ffffffffffffffffffffffffffffffffffffffff82169050919050565b600061362e82613603565b9050919050565b61363e81613623565b82525050565b60006020820190506136596000830184613635565b92915050565b61366881613623565b811461367357600080fd5b50565b6000813590506136858161365f565b92915050565b600080604083850312156136a2576136a1613429565b5b60006136b085828601613676565b92505060206136c1858286016135c1565b9150509250929050565b6136d4816135a0565b82525050565b7f4e487b7100000000000000000000000000000000000000000000000000000000600052602160045260246000fd5b6005811061371a576137196136da565b5b50565b600081905061372b82613709565b919050565b600061373b8261371d565b9050919050565b61374b81613730565b82525050565b600061010082019050613767600083018b6136cb565b613774602083018a613742565b6137816040830189613635565b61378e6060830188613635565b61379b6080830187613635565b6137a860a0830186613635565b6137b560c0830185613635565b81810360e08301526137c78184613545565b90509998505050505050505050565b6000819050919050565b6137e9816137d6565b82525050565b600060208201905061380460008301846137e0565b92915050565b6000602082840312156138205761381f613429565b5b600061382e84828501613676565b91505092915050565b6000806000606084860312156138505761384f613429565b5b600061385e86828701613676565b935050602061386f86828701613676565b9250506040613880868287016135c1565b9150509250925092565b613893816137d6565b811461389e57600080fd5b50565b6000813590506138b08161388a565b92915050565b6000602082840312156138cc576138cb613429565b5b60006138da848285016138a1565b91505092915050565b600080604083850312156138fa576138f9613429565b5b6000613908858286016138a1565b925050602061391985828601613676565b9150509250929050565b61392c816134b8565b811461393757600080fd5b50565b60008135905061394981613923565b92915050565b600080fd5b600080fd5b600080fd5b60008083601f8401126139745761397361394f565b5b8235905067ffffffffffffffff81111561399157613990613954565b5b6020830191508360018202830111156139ad576139ac613959565b5b9250929050565b600080600080606085870312156139ce576139cd613429565b5b60006139dc878288016135c1565b94505060206139ed8782880161393a565b935050604085013567ffffffffffffffff811115613a0e57613a0d61342e565b5b613a1a8782880161395e565b925092505092959194509250565b600080fd5b7f4e487b7100000000000000000000000000000000000000000000000000000000600052604160045260246000fd5b613a6582613534565b810181811067ffffffffffffffff82111715613a8457613a83613a2d565b5b80604052505050565b6000613a9761341f565b9050613aa38282613a5c565b919050565b600067ffffffffffffffff821115613ac357613ac2613a2d565b5b613acc82613534565b9050602081019050919050565b82818337600083830152505050565b6000613afb613af684613aa8565b613a8d565b905082815260208101848484011115613b1757613b16613a28565b5b613b22848285613ad9565b509392505050565b600082601f830112613b3f57613b3e61394f565b5b8135613b4f848260208601613ae8565b91505092915050565b600060208284031215613b6e57613b6d613429565b5b600082013567ffffffffffffffff811115613b8c57613b8b61342e565b5b613b9884828501613b2a565b91505092915050565b6000602082019050613bb660008301846136cb565b92915050565b613bc5816135a0565b82525050565b613bd481613730565b82525050565b613be381613623565b82525050565b600082825260208201905092915050565b6000613c05826134ee565b613c0f8185613be9565b9350613c1f81856020860161350a565b613c2881613534565b840191505092915050565b600061010083016000830151613c4c6000860182613bbc565b506020830151613c5f6020860182613bcb565b506040830151613c726040860182613bda565b506060830151613c856060860182613bda565b506080830151613c986080860182613bda565b5060a0830151613cab60a0860182613bda565b5060c0830151613cbe60c0860182613bda565b5060e083015184820360e0860152613cd68282613bfa565b9150508091505092915050565b60006020820190508181036000830152613cfd8184613c33565b905092915050565b60008060408385031215613d1c57613d1b613429565b5b6000613d2a85828601613676565b9250506020613d3b8582860161393a565b9150509250929050565b600067ffffffffffffffff821115613d6057613d5f613a2d565b5b613d6982613534565b9050602081019050919050565b6000613d89613d8484613d45565b613a8d565b905082815260208101848484011115613da557613da4613a28565b5b613db0848285613ad9565b509392505050565b600082601f830112613dcd57613dcc61394f565b5b8135613ddd848260208601613d76565b91505092915050565b60008060008060808587031215613e0057613dff613429565b5b6000613e0e87828801613676565b9450506020613e1f87828801613676565b9350506040613e30878288016135c1565b925050606085013567ffffffffffffffff811115613e5157613e5061342e565b5b613e5d87828801613db8565b91505092959194509250565b60008060408385031215613e8057613e7f613429565b5b6000613e8e85828601613676565b9250506020613e9f85828601613676565b9150509250929050565b7f4e487b7100000000000000000000000000000000000000000000000000000000600052602260045260246000fd5b60006002820490506001821680613ef057607f821691505b602082108103613f0357613f02613ea9565b5b50919050565b6000606082019050613f1e6000830186613635565b613f2b60208301856136cb565b613f386040830184613635565b949350505050565b7f4e6f74206f776e65720000000000000000000000000000000000000000000000600082015250565b6000613f766009836134f9565b9150613f8182613f40565b602082019050919050565b60006020820190508181036000830152613fa581613f69565b9050919050565b7f57726f6e67207374617465000000000000000000000000000000000000000000600082015250565b6000613fe2600b836134f9565b9150613fed82613fac565b602082019050919050565b6000602082019050818103600083015261401181613fd5565b9050919050565b7f496e7370656374696f6e206661696c6564000000000000000000000000000000600082015250565b600061404e6011836134f9565b915061405982614018565b602082019050919050565b6000602082019050818103600083015261407d81614041565b9050919050565b600082905092915050565b60008190508160005260206000209050919050565b60006020601f8301049050919050565b600082821b905092915050565b6000600883026140f17fffffffffffffffffffffffffffffffffffffffffffffffffffffffffffffffff826140b4565b6140fb86836140b4565b95508019841693508086168417925050509392505050565b6000819050919050565b600061413861413361412e846135a0565b614113565b6135a0565b9050919050565b6000819050919050565b6141528361411d565b61416661415e8261413f565b8484546140c1565b825550505050565b600090565b61417b61416e565b614186818484614149565b505050565b5b818110156141aa5761419f600082614173565b60018101905061418c565b5050565b601f8211156141ef576141c08161408f565b6141c9846140a4565b810160208510156141d8578190505b6141ec6141e4856140a4565b83018261418b565b50505b505050565b600082821c905092915050565b6000614212600019846008026141f4565b1980831691505092915050565b600061422b8383614201565b9150826002028217905092915050565b6142458383614084565b67ffffffffffffffff81111561425e5761425d613a2d565b5b6142688254613ed8565b6142738282856141ae565b6000601f8311600181146142a25760008415614290578287013590505b61429a858261421f565b865550614302565b601f1984166142b08661408f565b60005b828110156142d8578489013582556001820191506020850194506020810190506142b3565b868310156142f557848901356142f1601f891682614201565b8355505b6001600288020188555050505b50505050505050565b600061431783856134f9565b9350614324838584613ad9565b61432d83613534565b840190509392505050565b6000602082019050818103600083015261435381848661430b565b90509392505050565b7f4e487b7100000000000000000000000000000000000000000000000000000000600052601160045260246000fd5b6000614396826135a0565b91507fffffffffffffffffffffffffffffffffffffffffffffffffffffffffffffffff82036143c8576143c761435c565b5b600182019050919050565b6143dc826134ee565b67ffffffffffffffff8111156143f5576143f4613a2d565b5b6143ff8254613ed8565b61440a8282856141ae565b600060209050601f83116001811461443d576000841561442b578287015190505b614435858261421f565b86555061449d565b601f19841661444b8661408f565b60005b828110156144735784890151825560018201915060208501945060208101905061444e565b86831015614490578489015161448c601f891682614201565b8355505b6001600288020188555050505b505050505050565b7f4d75737420626520696e73706563746564206265666f72652073616c65000000600082015250565b60006144db601d836134f9565b91506144e6826144a5565b602082019050919050565b6000602082019050818103600083015261450a816144ce565b9050919050565b600081519050919050565b600082825260208201905092915050565b600061453882614511565b614542818561451c565b935061455281856020860161350a565b61455b81613534565b840191505092915050565b600060808201905061457b6000830187613635565b6145886020830186613635565b61459560408301856136cb565b81810360608301526145a7818461452d565b905095945050505050565b6000815190506145c18161345f565b92915050565b6000602082840312156145dd576145dc613429565b5b60006145eb848285016145b2565b91505092915050565b600081905092915050565b600061460a826134ee565b61461481856145f4565b935061462481856020860161350a565b80840191505092915050565b600061463c82856145ff565b915061464882846145ff565b91508190509392505050565b60006040820190506146696000830185613635565b61467660208301846137e0565b9392505050565b60006040820190506146926000830185613635565b61469f60208301846136cb565b9392505050565b7f4e487b7100000000000000000000000000000000000000000000000000000000600052601260045260246000fdfea264697066735822122084e1e200d7bfafb35754b68e16078d98a39f91f12a54bcc8926a91445e3afc7064736f6c634300081c0033",
  "linkReferences": {},
  "deployedLinkReferences": {}
}