{
  "_format": "hh-sol-artifact-1",
  "contractName": "WineChain",
  "sourceName": "contracts/WineChain.sol",
  "abi": [
    {
      "inputs": [],
      "stateMutability": "nonpayable",
      "type": "constructor"
    },
    {
      "inputs": [],
      "name": "AccessControlBadConfirmation",
      "type": "error"
    },
    {
      "inputs": [
        {
          "internalType": "address",
          "name": "account",
          "type": "address"
        },
        {
          "internalType": "bytes32",
          "name": "neededRole",
          "type": "bytes32"
        }
      ],
      "name": "AccessControlUnauthorizedAccount",
      "type": "error"
    },
    {
      "inputs": [
        {
          "internalType": "address",
          "name": "sender",
          "type": "address"
        },
        {
          "internalType": "uint256",
          "name": "tokenId",
          "type": "uint256"
        },
        {
          "internalType": "address",
          "name": "owner",
          "type": "address"
        }
      ],
      "name": "ERC721IncorrectOwner",
      "type": "error"
    },
    {
      "inputs": [
        {
          "internalType": "address",
          "name": "operator",
          "type": "address"
        },
        {
          "internalType": "uint256",
          "name": "tokenId",
          "type": "uint256"
        }
      ],
      "name": "ERC721InsufficientApproval",
      "type": "error"
    },
    {
      "inputs": [
        {
          "internalType": "address",
          "name": "approver",
          "type": "address"
        }
      ],
      "name": "ERC721InvalidApprover",
      "type": "error"
    },
    {
      "inputs": [
        {
          "internalType": "address",
          "name": "operator",
          "type": "address"
        }
      ],
      "name": "ERC721InvalidOperator",
      "type": "error"
    },
    {
      "inputs": [
        {
          "internalType": "address",
          "name": "owner",
          "type": "address"
        }
      ],
      "name": "ERC721InvalidOwner",
      "type": "error"
    },
    {
      "inputs": [
        {
          "internalType": "address",
          "name": "receiver",
          "type": "address"
        }
      ],
      "name": "ERC721InvalidReceiver",
      "type": "error"
    },
    {
      "inputs": [
        {
          "internalType": "address",
          "name": "sender",
          "type": "address"
        }
      ],
      "name": "ERC721InvalidSender",
      "type": "error"
    },
    {
      "inputs": [
        {
          "internalType": "uint256",
          "name": "tokenId",
          "type": "uint256"
        }
      ],
      "name": "ERC721NonexistentToken",
      "type": "error"
    },
    {
      "anonymous": false,
      "inputs": [
        {
          "indexed": true,
          "internalType": "address",
          "name": "owner",
          "type": "address"
        },
        {
          "indexed": true,
          "internalType": "address",
          "name": "approved",
          "type": "address"
        },
        {
          "indexed": true,
          "internalType": "uint256",
          "name": "tokenId",
          "type": "uint256"
        }
      ],
      "name": "Approval",
      "type": "event"
    },
    {
      "anonymous": false,
      "inputs": [
        {
          "indexed": true,
          "internalType": "address",
          "name": "owner",
          "type": "address"
        },
        {
          "indexed": true,
          "internalType": "address",
          "name": "operator",
          "type": "address"
        },
        {
          "indexed": false,
          "internalType": "bool",
          "name": "approved",
          "type": "bool"
        }
      ],
      "name": "ApprovalForAll",
      "type": "event"
    },
    {
      "anonymous": false,
      "inputs": [
        {
          "indexed": false,
          "internalType": "uint256",
          "name": "_fromTokenId",
          "type": "uint256"
        },
        {
          "indexed": false,
          "internalType": "uint256",
          "name": "_toTokenId",
          "type": "uint256"
        }
      ],
      "name": "BatchMetadataUpdate",
      "type": "event"
    },
    {
      "anonymous": false,
      "inputs": [
        {
          "indexed": false,
          "internalType": "uint256",
          "name": "_tokenId",
          "type": "uint256"
        }
      ],
      "name": "MetadataUpdate",
      "type": "event"
    },
    {
      "anonymous": false,
      "inputs": [
        {
          "indexed": true,
          "internalType": "bytes32",
          "name": "role",
          "type": "bytes32"
        },
        {
          "indexed": true,
          "internalType": "bytes32",
          "name": "previousAdminRole",
          "type": "bytes32"
        },
        {
          "indexed": true,
          "internalType": "bytes32",
          "name": "newAdminRole",
          "type": "bytes32"
        }
      ],
      "name": "RoleAdminChanged",
      "type": "event"
    },
    {
      "anonymous": false,
      "inputs": [
        {
          "indexed": true,
          "internalType": "bytes32",
          "name": "role",
          "type": "bytes32"
        },
        {
          "indexed": true,
          "internalType": "address",
          "name": "account",
          "type": "address"
        },
        {
          "indexed": true,
          "internalType": "address",
          "name": "sender",
          "type": "address"
        }
      ],
      "name": "RoleGranted",
      "type": "event"
    },
    {
      "anonymous": false,
      "inputs": [
        {
          "indexed": true,
          "internalType": "bytes32",
          "name": "role",
          "type": "bytes32"
        },
        {
          "indexed": true,
          "internalType": "address",
          "name": "account",
          "type": "address"
        },
        {
          "indexed": true,
          "internalType": "address",
          "name": "sender",
          "type": "address"
        }
      ],
      "name": "RoleRevoked",
      "type": "event"
    },
    {
      "anonymous": false,
      "inputs": [
        {
          "indexed": true,
          "internalType": "address",
          "name": "from",
          "type": "address"
        },
        {
          "indexed": true,
          "internalType": "address",
          "name": "to",
          "type": "address"
        },
        {
          "indexed": true,
          "internalType": "uint256",
          "name": "tokenId",
          "type": "uint256"
        }
      ],
      "name": "Transfer",
      "type": "event"
    },
    {
      "anonymous": false,
      "inputs": [
        {
          "indexed": true,
          "internalType": "uint256",
          "name": "tokenId",
          "type": "uint256"
        },
        {
          "indexed": true,
          "internalType": "address",
          "name": "winery",
          "type": "address"
        },
        {
          "indexed": false,
          "internalType": "string",
          "name": "tokenURI",
          "type": "string"
        }
      ],
      "name": "WineCreated",
      "type": "event"
    },
    {
      "anonymous": false,
      "inputs": [
        {
          "indexed": true,
          "internalType": "uint256",
          "name": "tokenId",
          "type": "uint256"
        },
        {
          "indexed": true,
          "internalType": "address",
          "name": "distributor",
          "type": "address"
        }
      ],
      "name": "WineDistributed",
      "type": "event"
    },
    {
      "anonymous": false,
      "inputs": [
        {
          "indexed": true,
          "internalType": "uint256",
          "name": "tokenId",
          "type": "uint256"
        },
        {
          "indexed": true,
          "internalType": "address",
          "name": "regulator",
          "type": "address"
        },
        {
          "indexed": false,
          "internalType": "string",
          "name": "reportUri",
          "type": "string"
        }
      ],
      "name": "WineInspected",
      "type": "event"
    },
    {
      "anonymous": false,
      "inputs": [
        {
          "indexed": true,
          "internalType": "uint256",
          "name": "tokenId",
          "type": "uint256"
        },
        {
          "indexed": true,
          "internalType": "address",
          "name": "retailer",
          "type": "address"
        }
      ],
      "name": "WineReceived",
      "type": "event"
    },
    {
      "anonymous": false,
      "inputs": [
        {
          "indexed": true,
          "internalType": "uint256",
          "name": "tokenId",
          "type": "uint256"
        },
        {
          "indexed": true,
          "internalType": "address",
          "name": "consumer",
          "type": "address"
        }
      ],
      "name": "WineSold",
      "type": "event"
    },
    {
      "inputs": [],
      "name": "CONSUMER_ROLE",
      "outputs": [
        {
          "internalType": "bytes32",
          "name": "",
          "type": "bytes32"
        }
      ],
      "stateMutability": "view",
      "type": "function"
    },
    {
      "inputs": [],
      "name": "DEFAULT_ADMIN_ROLE",
      "outputs": [
        {
          "internalType": "bytes32",
          "name": "",
          "type": "bytes32"
        }
      ],
      "stateMutability": "view",
      "type": "function"
    },
    {
      "inputs": [],
      "name": "DISTRIBUTOR_ROLE",
      "outputs": [
        {
          "internalType": "bytes32",
          "name": "",
          "type": "bytes32"
        }
      ],
      "stateMutability": "view",
      "type": "function"
    },
    {
      "inputs": [],
      "name": "REGULATOR_ROLE",
      "outputs": [
        {
          "internalType": "bytes32",
          "name": "",
          "type": "bytes32"
        }
      ],
      "stateMutability": "view",
      "type": "function"
    },
    {
      "inputs": [],
      "name": "RETAILER_ROLE",
      "outputs": [
        {
          "internalType": "bytes32",
          "name": "",
          "type": "bytes32"
        }
      ],
      "stateMutability": "view",
      "type": "function"
    },
    {
      "inputs": [],
      "name": "WINERY_ROLE",
      "outputs": [
        {
          "internalType": "bytes32",
          "name": "",
          "type": "bytes32"
        }
      ],
      "stateMutability": "view",
      "type": "function"
    },
    {
      "inputs": [
        {
          "internalType": "address",
          "name": "to",
          "type": "address"
        },
        {
          "internalType": "uint256",
          "name": "tokenId",
          "type": "uint256"
        }
      ],
      "name": "approve",
      "outputs": [],
      "stateMutability": "nonpayable",
      "type": "function"
    },
    {
      "inputs": [
        {
          "internalType": "address",
          "name": "owner",
          "type": "address"
        }
      ],
      "name": "balanceOf",
      "outputs": [
        {
          "internalType": "uint256",
          "name": "",
          "type": "uint256"
        }
      ],
      "stateMutability": "view",
      "type": "function"
    },
    {
      "inputs": [
        {
          "internalType": "uint256",
          "name": "tokenId",
          "type": "uint256"
        }
      ],
      "name": "buyWine",
      "outputs": [],
      "stateMutability": "payable",
      "type": "function"
    },
    {
      "inputs": [
        {
          "internalType": "string",
          "name": "tokenUri",
          "type": "string"
        }
      ],
      "name": "createWine",
      "outputs": [
        {
          "internalType": "uint256",
          "name": "",
          "type": "uint256"
        }
      ],
      "stateMutability": "nonpayable",
      "type": "function"
    },
    {
      "inputs": [
        {
          "internalType": "uint256",
          "name": "tokenId",
          "type": "uint256"
        }
      ],
      "name": "distributeWine",
      "outputs": [],
      "stateMutability": "nonpayable",
      "type": "function"
    },
    {
      "inputs": [
        {
          "internalType": "uint256",
          "name": "tokenId",
          "type": "uint256"
        }
      ],
      "name": "getApproved",
      "outputs": [
        {
          "internalType": "address",
          "name": "",
          "type": "address"
        }
      ],
      "stateMutability": "view",
      "type": "function"
    },
    {
      "inputs": [
        {
          "internalType": "bytes32",
          "name": "role",
          "type": "bytes32"
        }
      ],
      "name": "getRoleAdmin",
      "outputs": [
        {
          "internalType": "bytes32",
          "name": "",
          "type": "bytes32"
        }
      ],
      "stateMutability": "view",
      "type": "function"
    },
    {
      "inputs": [
        {
          "internalType": "uint256",
          "name": "tokenId",
          "type": "uint256"
        }
      ],
      "name": "getWine",
      "outputs": [
        {
          "components": [
            {
              "internalType": "uint256",
              "name": "tokenId",
              "type": "uint256"
            },
            {
              "internalType": "enum WineChain.State",
              "name": "state",
              "type": "uint8"
            },
            {
              "internalType": "address",
              "name": "winery",
              "type": "address"
            },
            {
              "internalType": "address",
              "name": "distributor",
              "type": "address"
            },
            {
              "internalType": "address",
              "name": "retailer",
              "type": "address"
            },
            {
              "internalType": "address",
              "name": "regulator",
              "type": "address"
            },
            {
              "internalType": "address",
              "name": "consumer",
              "type": "address"
            },
            {
              "internalType": "string",
              "name": "inspectionUri",
              "type": "string"
            }
          ],
          "internalType": "struct WineChain.Wine",
          "name": "",
          "type": "tuple"
        }
      ],
      "stateMutability": "view",
      "type": "function"
    },
    {
      "inputs": [
        {
          "internalType": "address",
          "name": "account",
          "type": "address"
        }
      ],
      "name": "grantConsumer",
      "outputs": [],
      "stateMutability": "nonpayable",
      "type": "function"
    },
    {
      "inputs": [
        {
          "internalType": "address",
          "name": "account",
          "type": "address"
        }
      ],
      "name": "grantDistributor",
      "outputs": [],
      "stateMutability": "nonpayable",
      "type": "function"
    },
    {
      "inputs": [
        {
          "internalType": "address",
          "name": "account",
          "type": "address"
        }
      ],
      "name": "grantRegulator",
      "outputs": [],
      "stateMutability": "nonpayable",
      "type": "function"
    },
    {
      "inputs": [
        {
          "internalType": "address",
          "name": "account",
          "type": "address"
        }
      ],
      "name": "grantRetailer",
      "outputs": [],
      "stateMutability": "nonpayable",
      "type": "function"
    },
    {
      "inputs": [
        {
          "internalType": "bytes32",
          "name": "role",
          "type": "bytes32"
        },
        {
          "internalType": "address",
          "name": "account",
          "type": "address"
        }
      ],
      "name": "grantRole",
      "outputs": [],
      "stateMutability": "nonpayable",
      "type": "function"
    },
    {
      "inputs": [
        {
          "internalType": "bytes32",
          "name": "role",
          "type": "bytes32"
        },
        {
          "internalType": "address",
          "name": "account",
          "type": "address"
        }
      ],
      "name": "hasRole",
      "outputs": [
        {
          "internalType": "bool",
          "name": "",
          "type": "bool"
        }
      ],
      "stateMutability": "view",
      "type": "function"
    },
    {
      "inputs": [
        {
          "internalType": "uint256",
          "name": "tokenId",
          "type": "uint256"
        },
        {
          "internalType": "bool",
          "name": "passed",
          "type": "bool"
        },
        {
          "internalType": "string",
          "name": "reportUri",
          "type": "string"
        }
      ],
      "name": "inspectWine",
      "outputs": [],
      "stateMutability": "nonpayable",
      "type": "function"
    },
    {
      "inputs": [
        {
          "internalType": "address",
          "name": "owner",
          "type": "address"
        },
        {
          "internalType": "address",
          "name": "operator",
          "type": "address"
        }
      ],
      "name": "isApprovedForAll",
      "outputs": [
        {
          "internalType": "bool",
          "name": "",
          "type": "bool"
        }
      ],
      "stateMutability": "view",
      "type": "function"
    },
    {
      "inputs": [],
      "name": "name",
      "outputs": [
        {
          "internalType": "string",
          "name": "",
          "type": "string"
        }
      ],
      "stateMutability": "view",
      "type": "function"
    },
    {
      "inputs": [
        {
          "internalType": "uint256",
          "name": "tokenId",
          "type": "uint256"
        }
      ],
      "name": "ownerOf",
      "outputs": [
        {
          "internalType": "address",
          "name": "",
          "type": "address"
        }
      ],
      "stateMutability": "view",
      "type": "function"
    },
    {
      "inputs": [
        {
          "internalType": "uint256",
          "name": "tokenId",
          "type": "uint256"
        }
      ],
      "name": "receiveWine",
      "outputs": [],
      "stateMutability": "nonpayable",
      "type": "function"
    },
    {
      "inputs": [
        {
          "internalType": "bytes32",
          "name": "role",
          "type": "bytes32"
        },
        {
          "internalType": "address",
          "name": "callerConfirmation",
          "type": "address"
        }
      ],
      "name": "renounceRole",
      "outputs": [],
      "stateMutability": "nonpayable",
      "type": "function"
    },
    {
      "inputs": [
        {
          "internalType": "bytes32",
          "name": "role",
          "type": "bytes32"
        },
        {
          "internalType": "address",
          "name": "account",
          "type": "address"
        }
      ],
      "name": "revokeRole",
      "outputs": [],
      "stateMutability": "nonpayable",
      "type": "function"
    },
    {
      "inputs": [
        {
          "internalType": "address",
          "name": "from",
          "type": "address"
        },
        {
          "internalType": "address",
          "name": "to",
          "type": "address"
        },
        {
          "internalType": "uint256",
          "name": "tokenId",
          "type": "uint256"
        }
      ],
      "name": "safeTransferFrom",
      "outputs": [],
      "stateMutability": "nonpayable",
      "type": "function"
    },
    {
      "inputs": [
        {
          "internalType": "address",
          "name": "from",
          "type": "address"
        },
        {
          "internalType": "address",
          "name": "to",
          "type": "address"
        },
        {
          "internalType": "uint256",
          "name": "tokenId",
          "type": "uint256"
        },
        {
          "internalType": "bytes",
          "name": "data",
          "type": "bytes"
        }
      ],
      "name": "safeTransferFrom",
      "outputs": [],
      "stateMutability": "nonpayable",
      "type": "function"
    },
    {
      "inputs": [
        {
          "internalType": "address",
          "name": "operator",
          "type": "address"
        },
        {
          "internalType": "bool",
          "name": "approved",
          "type": "bool"
        }
      ],
      "name": "setApprovalForAll",
      "outputs": [],
      "stateMutability": "nonpayable",
      "type": "function"
    },
    {
      "inputs": [
        {
          "internalType": "bytes4",
          "name": "interfaceId",
          "type": "bytes4"
        }
      ],
      "name": "supportsInterface",
      "outputs": [
        {
          "internalType": "bool",
          "name": "",
          "type": "bool"
        }
      ],
      "stateMutability": "view",
      "type": "function"
    },
    {
      "inputs": [],
      "name": "symbol",
      "outputs": [
        {
          "internalType": "string",
          "name": "",
          "type": "string"
        }
      ],
      "stateMutability": "view",
      "type": "function"
    },
    {
      "inputs": [
        {
          "internalType": "uint256",
          "name": "tokenId",
          "type": "uint256"
        }
      ],
      "name": "tokenURI",
      "outputs": [
        {
          "internalType": "string",
          "name": "",
          "type": "string"
        }
      ],
      "stateMutability": "view",
      "type": "function"
    },
    {
      "inputs": [],
      "name": "totalMinted",
      "outputs": [
        {
          "internalType": "uint256",
          "name": "",
          "type": "uint256"
        }
      ],
      "stateMutability": "view",
      "type": "function"
    },
    {
      "inputs": [
        {
          "internalType": "address",
          "name": "from",
          "type": "address"
        },
        {
          "internalType": "address",
          "name": "to",
          "type": "address"
        },
        {
          "internalType": "uint256",
          "name": "tokenId",
          "type": "uint256"
        }
      ],
      "name": "transferFrom",
      "outputs": [],
      "stateMutability": "nonpayable",
      "type": "function"
    },
    {
      "inputs": [
        {
          "internalType": "uint256",
          "name": "",
          "type": "uint256"
        }
      ],
      "name": "wines",
      "outputs": [
        {
          "internalType": "uint256",
          "name": "tokenId",
          "type": "uint256"
        },
        {
          "internalType": "enum WineChain.State",
          "name": "state",
          "type": "uint8"
        },
        {
          "internalType": "address",
          "name": "winery",
          "type": "address"
        },
        {
          "internalType": "address",
          "name": "distributor",
          "type": "address"
        },
        {
          "internalType": "address",
          "name": "retailer",
          "type": "address"
        },
        {
          "internalType": "address",
          "name": "regulator",
          "type": "address"
        },
        {
          "internalType": "address",
          "name": "consumer",
          "type": "address"
        },
        {
          "internalType": "string",
          "name": "inspectionUri",
          "type": "string"
        }
      ],
      "stateMutability": "view",
      "type": "function"
    }
  ],
  "bytecode": "0x608060405234801561001057600080fd5b506040518060400160405280600981526020017f57696e65436861696e00000000000000000000000000000000000000000000008152506040518060400160405280600481526020017f57494e4500000000000000000000000000000000000000000000000000000000815250816000908161008c91906104aa565b50806001908161009c91906104aa565b5050506100b26000801b336100e960201b60201c565b506100e37f7df5d84b008bada7ebf3cb696b55e4d07d278c6155d14dae907b19d95fa89f4c336100e960201b60201c565b5061057c565b60006100fb83836101e760201b60201c565b6101dc5760016007600085815260200190815260200160002060000160008473ffffffffffffffffffffffffffffffffffffffff1673ffffffffffffffffffffffffffffffffffffffff16815260200190815260200160002060006101000a81548160ff02191690831515021790555061017961025260201b60201c565b73ffffffffffffffffffffffffffffffffffffffff168273ffffffffffffffffffffffffffffffffffffffff16847f2f8788117e7eff1d82e926ec794901d17c78024a50270940304540a733656f0d60405160405180910390a4600190506101e1565b600090505b92915050565b60006007600084815260200190815260200160002060000160008373ffffffffffffffffffffffffffffffffffffffff1673ffffffffffffffffffffffffffffffffffffffff16815260200190815260200160002060009054906101000a900460ff16905092915050565b600033905090565b600081519050919050565b7f4e487b7100000000000000000000000000000000000000000000000000000000600052604160045260246000fd5b7f4e487b7100000000000000000000000000000000000000000000000000000000600052602260045260246000fd5b600060028204905060018216806102db57607f821691505b6020821081036102ee576102ed610294565b5b50919050565b60008190508160005260206000209050919050565b60006020601f8301049050919050565b600082821b905092915050565b6000600883026103567fffffffffffffffffffffffffffffffffffffffffffffffffffffffffffffffff82610319565b6103608683610319565b95508019841693508086168417925050509392505050565b6000819050919050565b6000819050919050565b60006103a76103a261039d84610378565b610382565b610378565b9050919050565b6000819050919050565b6103c18361038c565b6103d56103cd826103ae565b848454610326565b825550505050565b600090565b6103ea6103dd565b6103f58184846103b8565b505050565b5b818110156104195761040e6000826103e2565b6001810190506103fb565b5050565b601f82111561045e5761042f816102f4565b61043884610309565b81016020851015610447578190505b61045b61045385610309565b8301826103fa565b50505b505050565b600082821c905092915050565b600061048160001984600802610463565b1980831691505092915050565b600061049a8383610470565b9150826002028217905092915050565b6104b38261025a565b67ffffffffffffffff8111156104cc576104cb610265565b5b6104d682546102c3565b6104e182828561041d565b600060209050601f8311600181146105145760008415610502578287015190505b61050c858261048e565b865550610574565b601f198416610522866102f4565b60005b8281101561054a57848901518255600182019150602085019450602081019050610525565b868310156105675784890151610563601f891682610470565b8355505b6001600288020188555050505b505050505050565b61474b8061058b6000396000f3fe60806040526004361061020f5760003560e01c8063612dcc2511610118578063a22cb465116100a0578063cbcf23491161006f578063cbcf2349146107ea578063d1e7404414610806578063d547741f1461082f578063e985e9c514610858578063f0bd87cc146108955761020f565b8063a22cb46514610730578063a2309ff814610759578063b88d4fde14610784578063c87b56dd146107ad5761020f565b806370a08231116100e757806370a08231146106235780637278fa9a1461066057806391d148541461069d57806395d89b41146106da578063a217fddf146107055761020f565b8063612dcc25146105575780636352211e1461058057806363ca21d7146105bd5780636e84aa94146105e65761020f565b806323b872dd1161019b5780632f2ff15d1161016a5780632f2ff15d1461048857806336568abe146104b157806342842e0e146104da5780634bc02da61461050357806353c27f6b1461052e5761020f565b806323b872dd146103d0578063248a9ca3146103f957806325c99191146104365780632c2f739a1461045f5761020f565b806313351db3116101e257806313351db3146102e2578063144bf589146103265780631bc0ffd6146103515780632115e7bf1461037c5780632148ee5d146103a75761020f565b806301ffc9a71461021457806306fdde0314610251578063081812fc1461027c578063095ea7b3146102b9575b600080fd5b34801561022057600080fd5b5061023b600480360381019061023691906134cb565b6108c0565b6040516102489190613513565b60405180910390f35b34801561025d57600080fd5b506102666108d2565b60405161027391906135be565b60405180910390f35b34801561028857600080fd5b506102a3600480360381019061029e9190613616565b610964565b6040516102b09190613684565b60405180910390f35b3480156102c557600080fd5b506102e060048036038101906102db91906136cb565b610980565b005b3480156102ee57600080fd5b5061030960048036038101906103049190613616565b610996565b60405161031d989796959493929190613791565b60405180910390f35b34801561033257600080fd5b5061033b610b13565b604051610348919061382f565b60405180910390f35b34801561035d57600080fd5b50610366610b37565b604051610373919061382f565b60405180910390f35b34801561038857600080fd5b50610391610b5b565b60405161039e919061382f565b60405180910390f35b3480156103b357600080fd5b506103ce60048036038101906103c9919061384a565b610b7f565b005b3480156103dc57600080fd5b506103f760048036038101906103f29190613877565b610bba565b005b34801561040557600080fd5b50610420600480360381019061041b91906138f6565b610cbc565b60405161042d919061382f565b60405180910390f35b34801561044257600080fd5b5061045d6004803603810190610458919061384a565b610cdc565b005b34801561046b57600080fd5b506104866004803603810190610481919061384a565b610d17565b005b34801561049457600080fd5b506104af60048036038101906104aa9190613923565b610d52565b005b3480156104bd57600080fd5b506104d860048036038101906104d39190613923565b610d74565b005b3480156104e657600080fd5b5061050160048036038101906104fc9190613877565b610def565b005b34801561050f57600080fd5b50610518610e0f565b604051610525919061382f565b60405180910390f35b34801561053a57600080fd5b50610555600480360381019061055091906139f4565b610e33565b005b34801561056357600080fd5b5061057e60048036038101906105799190613616565b6110a3565b005b34801561058c57600080fd5b506105a760048036038101906105a29190613616565b6112c2565b6040516105b49190613684565b60405180910390f35b3480156105c957600080fd5b506105e460048036038101906105df919061384a565b6112d4565b005b3480156105f257600080fd5b5061060d60048036038101906106089190613b98565b61130f565b60405161061a9190613be1565b60405180910390f35b34801561062f57600080fd5b5061064a6004803603810190610645919061384a565b611658565b6040516106579190613be1565b60405180910390f35b34801561066c57600080fd5b5061068760048036038101906106829190613616565b611712565b6040516106949190613d23565b60405180910390f35b3480156106a957600080fd5b506106c460048036038101906106bf9190613923565b6119c5565b6040516106d19190613513565b60405180910390f35b3480156106e657600080fd5b506106ef611a30565b6040516106fc91906135be565b60405180910390f35b34801561071157600080fd5b5061071a611ac2565b604051610727919061382f565b60405180910390f35b34801561073c57600080fd5b5061075760048036038101906107529190613d45565b611ac9565b005b34801561076557600080fd5b5061076e611adf565b60405161077b9190613be1565b60405180910390f35b34801561079057600080fd5b506107ab60048036038101906107a69190613e26565b611ae9565b005b3480156107b957600080fd5b506107d460048036038101906107cf9190613616565b611b0e565b6040516107e191906135be565b60405180910390f35b61080460048036038101906107ff9190613616565b611b20565b005b34801561081257600080fd5b5061082d60048036038101906108289190613616565b611d45565b005b34801561083b57600080fd5b5061085660048036038101906108519190613923565b611f64565b005b34801561086457600080fd5b5061087f600480360381019061087a9190613ea9565b611f86565b60405161088c9190613513565b60405180910390f35b3480156108a157600080fd5b506108aa61201a565b6040516108b7919061382f565b60405180910390f35b60006108cb8261203e565b9050919050565b6060600080546108e190613f18565b80601f016020809104026020016040519081016040528092919081815260200182805461090d90613f18565b801561095a5780601f1061092f5761010080835404028352916020019161095a565b820191906000526020600020905b81548152906001019060200180831161093d57829003601f168201915b5050505050905090565b600061096f826120b8565b5061097982612140565b9050919050565b610992828261098d61217d565b612185565b5050565b60096020528060005260406000206000915090508060000154908060010160009054906101000a900460ff16908060010160019054906101000a900473ffffffffffffffffffffffffffffffffffffffff16908060020160009054906101000a900473ffffffffffffffffffffffffffffffffffffffff16908060030160009054906101000a900473ffffffffffffffffffffffffffffffffffffffff16908060040160009054906101000a900473ffffffffffffffffffffffffffffffffffffffff16908060050160009054906101000a900473ffffffffffffffffffffffffffffffffffffffff1690806006018054610a9090613f18565b80601f0160208091040260200160405190810160405280929190818152602001828054610abc90613f18565b8015610b095780601f10610ade57610100808354040283529160200191610b09565b820191906000526020600020905b815481529060010190602001808311610aec57829003601f168201915b5050505050905088565b7f20b5f7ac978e5d6199de06401411960dfa81d2f762655f6206bdc61d46fc19e681565b7f7df5d84b008bada7ebf3cb696b55e4d07d278c6155d14dae907b19d95fa89f4c81565b7f2a5f906c256a5d799494fcd066e1f6c077689de1cdb65052a1624de4bace99bf81565b6000801b610b8c81612197565b610bb67f9d56108290ea0bc9c5c59c3ad357dca9d1b29ed7f3ae1443bef2fa2159bdf5e883610d52565b5050565b600073ffffffffffffffffffffffffffffffffffffffff168273ffffffffffffffffffffffffffffffffffffffff1603610c2c5760006040517f64a0ae92000000000000000000000000000000000000000000000000000000008152600401610c239190613684565b60405180910390fd5b6000610c408383610c3b61217d565b6121ab565b90508373ffffffffffffffffffffffffffffffffffffffff168173ffffffffffffffffffffffffffffffffffffffff1614610cb6578382826040517f64283d7b000000000000000000000000000000000000000000000000000000008152600401610cad93929190613f49565b60405180910390fd5b50505050565b600060076000838152602001908152602001600020600101549050919050565b6000801b610ce981612197565b610d137f2a5f906c256a5d799494fcd066e1f6c077689de1cdb65052a1624de4bace99bf83610d52565b5050565b6000801b610d2481612197565b610d4e7f20b5f7ac978e5d6199de06401411960dfa81d2f762655f6206bdc61d46fc19e683610d52565b5050565b610d5b82610cbc565b610d6481612197565b610d6e83836123c5565b50505050565b610d7c61217d565b73ffffffffffffffffffffffffffffffffffffffff168173ffffffffffffffffffffffffffffffffffffffff1614610de0576040517f6697b23200000000000000000000000000000000000000000000000000000000815260040160405180910390fd5b610dea82826124b7565b505050565b610e0a83838360405180602001604052806000815250611ae9565b505050565b7f9d56108290ea0bc9c5c59c3ad357dca9d1b29ed7f3ae1443bef2fa2159bdf5e881565b7f20b5f7ac978e5d6199de06401411960dfa81d2f762655f6206bdc61d46fc19e6610e5d81612197565b60006009600087815260200190815260200160002090508060030160009054906101000a900473ffffffffffffffffffffffffffffffffffffffff1673ffffffffffffffffffffffffffffffffffffffff16610eb8876112c2565b73ffffffffffffffffffffffffffffffffffffffff1614610f0e576040517f08c379a0000000000000000000000000000000000000000000000000000000008152600401610f0590613fcc565b60405180910390fd5b60026004811115610f2257610f2161371a565b5b8160010160009054906101000a900460ff166004811115610f4657610f4561371a565b5b14610f86576040517f08c379a0000000000000000000000000000000000000000000000000000000008152600401610f7d90614038565b60405180910390fd5b84610fc6576040517f08c379a0000000000000000000000000000000000000000000000000000000008152600401610fbd906140a4565b60405180910390fd5b338160040160006101000a81548173ffffffffffffffffffffffffffffffffffffffff021916908373ffffffffffffffffffffffffffffffffffffffff160217905550838382600601918261101c92919061427b565b5060038160010160006101000a81548160ff021916908360048111156110455761104461371a565b5b02179055503373ffffffffffffffffffffffffffffffffffffffff16867f11610372bd5b102938ef5487fbcb618f785927468d60a6b28f162c40572abb298686604051611093929190614378565b60405180910390a3505050505050565b7ffbd454f36a7e1a388bd6fc3ab10d434aa4578f811acbbcf33afb1c697486313c6110cd81612197565b60006009600084815260200190815260200160002090508060010160019054906101000a900473ffffffffffffffffffffffffffffffffffffffff1673ffffffffffffffffffffffffffffffffffffffff16611128846112c2565b73ffffffffffffffffffffffffffffffffffffffff161461117e576040517f08c379a000000000000000000000000000000000000000000000000000000000815260040161117590613fcc565b60405180910390fd5b600060048111156111925761119161371a565b5b8160010160009054906101000a900460ff1660048111156111b6576111b561371a565b5b146111f6576040517f08c379a00000000000000000000000000000000000000000000000000000000081526004016111ed90614038565b60405180910390fd5b611209611202846112c2565b3385610def565b338160020160006101000a81548173ffffffffffffffffffffffffffffffffffffffff021916908373ffffffffffffffffffffffffffffffffffffffff16021790555060018160010160006101000a81548160ff021916908360048111156112745761127361371a565b5b02179055503373ffffffffffffffffffffffffffffffffffffffff16837f0d70a9d59315acaddc83f2e44f7fab36a77b05e01e601ddb148effc5c383a42560405160405180910390a3505050565b60006112cd826120b8565b9050919050565b6000801b6112e181612197565b61130b7ffbd454f36a7e1a388bd6fc3ab10d434aa4578f811acbbcf33afb1c697486313c83610d52565b5050565b60007f7df5d84b008bada7ebf3cb696b55e4d07d278c6155d14dae907b19d95fa89f4c61133b81612197565b600060086000815461134c906143cb565b919050819055905061135e33826125aa565b61136881856125c8565b6040518061010001604052808281526020016000600481111561138e5761138d61371a565b5b81526020013373ffffffffffffffffffffffffffffffffffffffff168152602001600073ffffffffffffffffffffffffffffffffffffffff168152602001600073ffffffffffffffffffffffffffffffffffffffff168152602001600073ffffffffffffffffffffffffffffffffffffffff168152602001600073ffffffffffffffffffffffffffffffffffffffff16815260200160405180602001604052806000815250815250600960008381526020019081526020016000206000820151816000015560208201518160010160006101000a81548160ff0219169083600481111561147e5761147d61371a565b5b021790555060408201518160010160016101000a81548173ffffffffffffffffffffffffffffffffffffffff021916908373ffffffffffffffffffffffffffffffffffffffff16021790555060608201518160020160006101000a81548173ffffffffffffffffffffffffffffffffffffffff021916908373ffffffffffffffffffffffffffffffffffffffff16021790555060808201518160030160006101000a81548173ffffffffffffffffffffffffffffffffffffffff021916908373ffffffffffffffffffffffffffffffffffffffff16021790555060a08201518160040160006101000a81548173ffffffffffffffffffffffffffffffffffffffff021916908373ffffffffffffffffffffffffffffffffffffffff16021790555060c08201518160050160006101000a81548173ffffffffffffffffffffffffffffffffffffffff021916908373ffffffffffffffffffffffffffffffffffffffff16021790555060e08201518160060190816115fb9190614413565b509050503373ffffffffffffffffffffffffffffffffffffffff16817face2423d95ad1b45e3e123230d7d662ba9051b2f90f0b59b5c3133aa6dac28b38660405161164691906135be565b60405180910390a38092505050919050565b60008073ffffffffffffffffffffffffffffffffffffffff168273ffffffffffffffffffffffffffffffffffffffff16036116cb5760006040517f89c62b640000000000000000000000000000000000000000000000000000000081526004016116c29190613684565b60405180910390fd5b600360008373ffffffffffffffffffffffffffffffffffffffff1673ffffffffffffffffffffffffffffffffffffffff168152602001908152602001600020549050919050565b61171a61339a565b6009600083815260200190815260200160002060405180610100016040529081600082015481526020016001820160009054906101000a900460ff1660048111156117685761176761371a565b5b600481111561177a5761177961371a565b5b81526020016001820160019054906101000a900473ffffffffffffffffffffffffffffffffffffffff1673ffffffffffffffffffffffffffffffffffffffff1673ffffffffffffffffffffffffffffffffffffffff1681526020016002820160009054906101000a900473ffffffffffffffffffffffffffffffffffffffff1673ffffffffffffffffffffffffffffffffffffffff1673ffffffffffffffffffffffffffffffffffffffff1681526020016003820160009054906101000a900473ffffffffffffffffffffffffffffffffffffffff1673ffffffffffffffffffffffffffffffffffffffff1673ffffffffffffffffffffffffffffffffffffffff1681526020016004820160009054906101000a900473ffffffffffffffffffffffffffffffffffffffff1673ffffffffffffffffffffffffffffffffffffffff1673ffffffffffffffffffffffffffffffffffffffff1681526020016005820160009054906101000a900473ffffffffffffffffffffffffffffffffffffffff1673ffffffffffffffffffffffffffffffffffffffff1673ffffffffffffffffffffffffffffffffffffffff16815260200160068201805461193c90613f18565b80601f016020809104026020016040519081016040528092919081815260200182805461196890613f18565b80156119b55780601f1061198a576101008083540402835291602001916119b5565b820191906000526020600020905b81548152906001019060200180831161199857829003601f168201915b5050505050815250509050919050565b60006007600084815260200190815260200160002060000160008373ffffffffffffffffffffffffffffffffffffffff1673ffffffffffffffffffffffffffffffffffffffff16815260200190815260200160002060009054906101000a900460ff16905092915050565b606060018054611a3f90613f18565b80601f0160208091040260200160405190810160405280929190818152602001828054611a6b90613f18565b8015611ab85780601f10611a8d57610100808354040283529160200191611ab8565b820191906000526020600020905b815481529060010190602001808311611a9b57829003601f168201915b5050505050905090565b6000801b81565b611adb611ad461217d565b8383612624565b5050565b6000600854905090565b611af4848484610bba565b611b08611aff61217d565b85858585612793565b50505050565b6060611b1982612944565b9050919050565b7f9d56108290ea0bc9c5c59c3ad357dca9d1b29ed7f3ae1443bef2fa2159bdf5e8611b4a81612197565b60006009600084815260200190815260200160002090508060030160009054906101000a900473ffffffffffffffffffffffffffffffffffffffff1673ffffffffffffffffffffffffffffffffffffffff16611ba5846112c2565b73ffffffffffffffffffffffffffffffffffffffff1614611bfb576040517f08c379a0000000000000000000000000000000000000000000000000000000008152600401611bf290613fcc565b60405180910390fd5b60036004811115611c0f57611c0e61371a565b5b8160010160009054906101000a900460ff166004811115611c3357611c3261371a565b5b14611c73576040517f08c379a0000000000000000000000000000000000000000000000000000000008152600401611c6a90614531565b60405180910390fd5b6000611c7e846112c2565b9050611c8b813386610def565b338260050160006101000a81548173ffffffffffffffffffffffffffffffffffffffff021916908373ffffffffffffffffffffffffffffffffffffffff16021790555060048260010160006101000a81548160ff02191690836004811115611cf657611cf561371a565b5b02179055503373ffffffffffffffffffffffffffffffffffffffff16847fe8368a18c3e152ebe6e85140ea8016fd8e372b80c98f2e803b15f63c3a0b4d1060405160405180910390a350505050565b7f2a5f906c256a5d799494fcd066e1f6c077689de1cdb65052a1624de4bace99bf611d6f81612197565b60006009600084815260200190815260200160002090508060020160009054906101000a900473ffffffffffffffffffffffffffffffffffffffff1673ffffffffffffffffffffffffffffffffffffffff16611dca846112c2565b73ffffffffffffffffffffffffffffffffffffffff1614611e20576040517f08c379a0000000000000000000000000000000000000000000000000000000008152600401611e1790613fcc565b60405180910390fd5b60016004811115611e3457611e3361371a565b5b8160010160009054906101000a900460ff166004811115611e5857611e5761371a565b5b14611e98576040517f08c379a0000000000000000000000000000000000000000000000000000000008152600401611e8f90614038565b60405180910390fd5b611eab611ea4846112c2565b3385610def565b338160030160006101000a81548173ffffffffffffffffffffffffffffffffffffffff021916908373ffffffffffffffffffffffffffffffffffffffff16021790555060028160010160006101000a81548160ff02191690836004811115611f1657611f1561371a565b5b02179055503373ffffffffffffffffffffffffffffffffffffffff16837f43acd955ce18023cf48c801ada1b4fe6e0f3b40e9273e39cc97cb135ea8c84da60405160405180910390a3505050565b611f6d82610cbc565b611f7681612197565b611f8083836124b7565b50505050565b6000600560008473ffffffffffffffffffffffffffffffffffffffff1673ffffffffffffffffffffffffffffffffffffffff16815260200190815260200160002060008373ffffffffffffffffffffffffffffffffffffffff1673ffffffffffffffffffffffffffffffffffffffff16815260200190815260200160002060009054906101000a900460ff16905092915050565b7ffbd454f36a7e1a388bd6fc3ab10d434aa4578f811acbbcf33afb1c697486313c81565b60007f7965db0b000000000000000000000000000000000000000000000000000000007bffffffffffffffffffffffffffffffffffffffffffffffffffffffff1916827bffffffffffffffffffffffffffffffffffffffffffffffffffffffff191614806120b157506120b082612a57565b5b9050919050565b6000806120c483612ab8565b9050600073ffffffffffffffffffffffffffffffffffffffff168173ffffffffffffffffffffffffffffffffffffffff160361213757826040517f7e27328900000000000000000000000000000000000000000000000000000000815260040161212e9190613be1565b60405180910390fd5b80915050919050565b60006004600083815260200190815260200160002060009054906101000a900473ffffffffffffffffffffffffffffffffffffffff169050919050565b600033905090565b6121928383836001612af5565b505050565b6121a8816121a361217d565b612cba565b50565b6000806121b784612ab8565b9050600073ffffffffffffffffffffffffffffffffffffffff168373ffffffffffffffffffffffffffffffffffffffff16146121f9576121f8818486612d0b565b5b600073ffffffffffffffffffffffffffffffffffffffff168173ffffffffffffffffffffffffffffffffffffffff161461228a5761223b600085600080612af5565b6001600360008373ffffffffffffffffffffffffffffffffffffffff1673ffffffffffffffffffffffffffffffffffffffff168152602001908152602001600020600082825403925050819055505b600073ffffffffffffffffffffffffffffffffffffffff168573ffffffffffffffffffffffffffffffffffffffff161461230d576001600360008773ffffffffffffffffffffffffffffffffffffffff1673ffffffffffffffffffffffffffffffffffffffff168152602001908152602001600020600082825401925050819055505b846002600086815260200190815260200160002060006101000a81548173ffffffffffffffffffffffffffffffffffffffff021916908373ffffffffffffffffffffffffffffffffffffffff160217905550838573ffffffffffffffffffffffffffffffffffffffff168273ffffffffffffffffffffffffffffffffffffffff167fddf252ad1be2c89b69c2b068fc378daa952ba7f163c4a11628f55a4df523b3ef60405160405180910390a4809150509392505050565b60006123d183836119c5565b6124ac5760016007600085815260200190815260200160002060000160008473ffffffffffffffffffffffffffffffffffffffff1673ffffffffffffffffffffffffffffffffffffffff16815260200190815260200160002060006101000a81548160ff02191690831515021790555061244961217d565b73ffffffffffffffffffffffffffffffffffffffff168273ffffffffffffffffffffffffffffffffffffffff16847f2f8788117e7eff1d82e926ec794901d17c78024a50270940304540a733656f0d60405160405180910390a4600190506124b1565b600090505b92915050565b60006124c383836119c5565b1561259f5760006007600085815260200190815260200160002060000160008473ffffffffffffffffffffffffffffffffffffffff1673ffffffffffffffffffffffffffffffffffffffff16815260200190815260200160002060006101000a81548160ff02191690831515021790555061253c61217d565b73ffffffffffffffffffffffffffffffffffffffff168273ffffffffffffffffffffffffffffffffffffffff16847ff6391f5c32d9c69d2a47ea670b442974b53935d1edc7fd64eb21e047a839171b60405160405180910390a4600190506125a4565b600090505b92915050565b6125c4828260405180602001604052806000815250612dcf565b5050565b806006600084815260200190815260200160002090816125e89190614413565b507ff8e1a15aba9398e019f0b49df1a4fde98ee17ae345cb5f6b5e2c27f5033e8ce7826040516126189190613be1565b60405180910390a15050565b600073ffffffffffffffffffffffffffffffffffffffff168273ffffffffffffffffffffffffffffffffffffffff160361269557816040517f5b08ba1800000000000000000000000000000000000000000000000000000000815260040161268c9190613684565b60405180910390fd5b80600560008573ffffffffffffffffffffffffffffffffffffffff1673ffffffffffffffffffffffffffffffffffffffff16815260200190815260200160002060008473ffffffffffffffffffffffffffffffffffffffff1673ffffffffffffffffffffffffffffffffffffffff16815260200190815260200160002060006101000a81548160ff0219169083151502179055508173ffffffffffffffffffffffffffffffffffffffff168373ffffffffffffffffffffffffffffffffffffffff167f17307eab39ab6107e8899845ad3d59bd9653f200f220920489ca2b5937696c31836040516127869190613513565b60405180910390a3505050565b60008373ffffffffffffffffffffffffffffffffffffffff163b111561293d578273ffffffffffffffffffffffffffffffffffffffff1663150b7a02868685856040518563ffffffff1660e01b81526004016127f294939291906145a6565b6020604051808303816000875af192505050801561282e57506040513d601f19601f8201168201806040525081019061282b9190614607565b60015b6128b2573d806000811461285e576040519150601f19603f3d011682016040523d82523d6000602084013e612863565b606091505b5060008151036128aa57836040517f64a0ae920000000000000000000000000000000000000000000000000000000081526004016128a19190613684565b60405180910390fd5b805160208201fd5b63150b7a0260e01b7bffffffffffffffffffffffffffffffffffffffffffffffffffffffff1916817bffffffffffffffffffffffffffffffffffffffffffffffffffffffff19161461293b57836040517f64a0ae920000000000000000000000000000000000000000000000000000000081526004016129329190613684565b60405180910390fd5b505b5050505050565b606061294f826120b8565b50600060066000848152602001908152602001600020805461297090613f18565b80601f016020809104026020016040519081016040528092919081815260200182805461299c90613f18565b80156129e95780601f106129be576101008083540402835291602001916129e9565b820191906000526020600020905b8154815290600101906020018083116129cc57829003601f168201915b5050505050905060006129fa612df3565b90506000815103612a0f578192505050612a52565b600082511115612a44578082604051602001612a2c929190614670565b60405160208183030381529060405292505050612a52565b612a4d84612e0a565b925050505b919050565b6000634906490660e01b7bffffffffffffffffffffffffffffffffffffffffffffffffffffffff1916827bffffffffffffffffffffffffffffffffffffffffffffffffffffffff19161480612ab15750612ab082612e73565b5b9050919050565b60006002600083815260200190815260200160002060009054906101000a900473ffffffffffffffffffffffffffffffffffffffff169050919050565b8080612b2e5750600073ffffffffffffffffffffffffffffffffffffffff168273ffffffffffffffffffffffffffffffffffffffff1614155b15612c62576000612b3e846120b8565b9050600073ffffffffffffffffffffffffffffffffffffffff168373ffffffffffffffffffffffffffffffffffffffff1614158015612ba957508273ffffffffffffffffffffffffffffffffffffffff168173ffffffffffffffffffffffffffffffffffffffff1614155b8015612bbc5750612bba8184611f86565b155b15612bfe57826040517fa9fbf51f000000000000000000000000000000000000000000000000000000008152600401612bf59190613684565b60405180910390fd5b8115612c6057838573ffffffffffffffffffffffffffffffffffffffff168273ffffffffffffffffffffffffffffffffffffffff167f8c5be1e5ebec7d5bd14f71427d1e84f3dd0314c0f7b2291e5b200ac8c7c3b92560405160405180910390a45b505b836004600085815260200190815260200160002060006101000a81548173ffffffffffffffffffffffffffffffffffffffff021916908373ffffffffffffffffffffffffffffffffffffffff16021790555050505050565b612cc482826119c5565b612d075780826040517fe2517d3f000000000000000000000000000000000000000000000000000000008152600401612cfe929190614694565b60405180910390fd5b5050565b612d16838383612f55565b612dca57600073ffffffffffffffffffffffffffffffffffffffff168373ffffffffffffffffffffffffffffffffffffffff1603612d8b57806040517f7e273289000000000000000000000000000000000000000000000000000000008152600401612d829190613be1565b60405180910390fd5b81816040517f177e802f000000000000000000000000000000000000000000000000000000008152600401612dc19291906146bd565b60405180910390fd5b505050565b612dd98383613016565b612dee612de461217d565b6000858585612793565b505050565b606060405180602001604052806000815250905090565b6060612e15826120b8565b506000612e20612df3565b90506000815111612e405760405180602001604052806000815250612e6b565b80612e4a8461310f565b604051602001612e5b929190614670565b6040516020818303038152906040525b915050919050565b60007f80ac58cd000000000000000000000000000000000000000000000000000000007bffffffffffffffffffffffffffffffffffffffffffffffffffffffff1916827bffffffffffffffffffffffffffffffffffffffffffffffffffffffff19161480612f3e57507f5b5e139f000000000000000000000000000000000000000000000000000000007bffffffffffffffffffffffffffffffffffffffffffffffffffffffff1916827bffffffffffffffffffffffffffffffffffffffffffffffffffffffff1916145b80612f4e5750612f4d826131dd565b5b9050919050565b60008073ffffffffffffffffffffffffffffffffffffffff168373ffffffffffffffffffffffffffffffffffffffff161415801561300d57508273ffffffffffffffffffffffffffffffffffffffff168473ffffffffffffffffffffffffffffffffffffffff161480612fce5750612fcd8484611f86565b5b8061300c57508273ffffffffffffffffffffffffffffffffffffffff16612ff483612140565b73ffffffffffffffffffffffffffffffffffffffff16145b5b90509392505050565b600073ffffffffffffffffffffffffffffffffffffffff168273ffffffffffffffffffffffffffffffffffffffff16036130885760006040517f64a0ae9200000000000000000000000000000000000000000000000000000000815260040161307f9190613684565b60405180910390fd5b6000613096838360006121ab565b9050600073ffffffffffffffffffffffffffffffffffffffff168173ffffffffffffffffffffffffffffffffffffffff161461310a5760006040517f73c6ac6e0000000000000000000000000000000000000000000000000000000081526004016131019190613684565b60405180910390fd5b505050565b60606000600161311e84613247565b01905060008167ffffffffffffffff81111561313d5761313c613a6d565b5b6040519080825280601f01601f19166020018201604052801561316f5781602001600182028036833780820191505090505b509050600082602083010190505b6001156131d2578080600190039150507f3031323334353637383961626364656600000000000000000000000000000000600a86061a8153600a85816131c6576131c56146e6565b5b0494506000850361317d575b819350505050919050565b60007f01ffc9a7000000000000000000000000000000000000000000000000000000007bffffffffffffffffffffffffffffffffffffffffffffffffffffffff1916827bffffffffffffffffffffffffffffffffffffffffffffffffffffffff1916149050919050565b600080600090507a184f03e93ff9f4daa797ed6e38ed64bf6a1f01000000000000000083106132a5577a184f03e93ff9f4daa797ed6e38ed64bf6a1f010000000000000000838161329b5761329a6146e6565b5b0492506040810190505b6d04ee2d6d415b85acef810000000083106132e2576d04ee2d6d415b85acef810000000083816132d8576132d76146e6565b5b0492506020810190505b662386f26fc10000831061331157662386f26fc100008381613307576133066146e6565b5b0492506010810190505b6305f5e100831061333a576305f5e10083816133305761332f6146e6565b5b0492506008810190505b612710831061335f576127108381613355576133546146e6565b5b0492506004810190505b606483106133825760648381613378576133776146e6565b5b0492506002810190505b600a8310613391576001810190505b80915050919050565b60405180610100016040528060008152602001600060048111156133c1576133c061371a565b5b8152602001600073ffffffffffffffffffffffffffffffffffffffff168152602001600073ffffffffffffffffffffffffffffffffffffffff168152602001600073ffffffffffffffffffffffffffffffffffffffff168152602001600073ffffffffffffffffffffffffffffffffffffffff168152602001600073ffffffffffffffffffffffffffffffffffffffff168152602001606081525090565b6000604051905090565b600080fd5b600080fd5b60007fffffffff0000000000000000000000000000000000000000000000000000000082169050919050565b6134a881613473565b81146134b357600080fd5b50565b6000813590506134c58161349f565b92915050565b6000602082840312156134e1576134e0613469565b5b60006134ef848285016134b6565b91505092915050565b60008115159050919050565b61350d816134f8565b82525050565b60006020820190506135286000830184613504565b92915050565b600081519050919050565b600082825260208201905092915050565b60005b8381101561356857808201518184015260208101905061354d565b60008484015250505050565b6000601f19601f8301169050919050565b60006135908261352e565b61359a8185613539565b93506135aa81856020860161354a565b6135b381613574565b840191505092915050565b600060208201905081810360008301526135d88184613585565b905092915050565b6000819050919050565b6135f3816135e0565b81146135fe57600080fd5b50565b600081359050613610816135ea565b92915050565b60006020828403121561362c5761362b613469565b5b600061363a84828501613601565b91505092915050565b600073ffffffffffffffffffffffffffffffffffffffff82169050919050565b600061366e82613643565b9050919050565b61367e81613663565b82525050565b60006020820190506136996000830184613675565b92915050565b6136a881613663565b81146136b357600080fd5b50565b6000813590506136c58161369f565b92915050565b600080604083850312156136e2576136e1613469565b5b60006136f0858286016136b6565b925050602061370185828601613601565b9150509250929050565b613714816135e0565b82525050565b7f4e487b7100000000000000000000000000000000000000000000000000000000600052602160045260246000fd5b6005811061375a5761375961371a565b5b50565b600081905061376b82613749565b919050565b600061377b8261375d565b9050919050565b61378b81613770565b82525050565b6000610100820190506137a7600083018b61370b565b6137b4602083018a613782565b6137c16040830189613675565b6137ce6060830188613675565b6137db6080830187613675565b6137e860a0830186613675565b6137f560c0830185613675565b81810360e08301526138078184613585565b90509998505050505050505050565b6000819050919050565b61382981613816565b82525050565b60006020820190506138446000830184613820565b92915050565b6000602082840312156138605761385f613469565b5b600061386e848285016136b6565b91505092915050565b6000806000606084860312156138905761388f613469565b5b600061389e868287016136b6565b93505060206138af868287016136b6565b92505060406138c086828701613601565b9150509250925092565b6138d381613816565b81146138de57600080fd5b50565b6000813590506138f0816138ca565b92915050565b60006020828403121561390c5761390b613469565b5b600061391a848285016138e1565b91505092915050565b6000806040838503121561393a57613939613469565b5b6000613948858286016138e1565b9250506020613959858286016136b6565b9150509250929050565b61396c816134f8565b811461397757600080fd5b50565b60008135905061398981613963565b92915050565b600080fd5b600080fd5b600080fd5b60008083601f8401126139b4576139b361398f565b5b8235905067ffffffffffffffff8111156139d1576139d0613994565b5b6020830191508360018202830111156139ed576139ec613999565b5b9250929050565b60008060008060608587031215613a0e57613a0d613469565b5b6000613a1c87828801613601565b9450506020613a2d8782880161397a565b935050604085013567ffffffffffffffff811115613a4e57613a4d61346e565b5b613a5a8782880161399e565b925092505092959194509250565b600080fd5b7f4e487b7100000000000000000000000000000000000000000000000000000000600052604160045260246000fd5b613aa582613574565b810181811067ffffffffffffffff82111715613ac457613ac3613a6d565b5b80604052505050565b6000613ad761345f565b9050613ae38282613a9c565b919050565b600067ffffffffffffffff821115613b0357613b02613a6d565b5b613b0c82613574565b9050602081019050919050565b82818337600083830152505050565b6000613b3b613b3684613ae8565b613acd565b905082815260208101848484011115613b5757613b56613a68565b5b613b62848285613b19565b509392505050565b600082601f830112613b7f57613b7e61398f565b5b8135613b8f848260208601613b28565b91505092915050565b600060208284031215613bae57613bad613469565b5b600082013567ffffffffffffffff811115613bcc57613bcb61346e565b5b613bd884828501613b6a565b91505092915050565b6000602082019050613bf6600083018461370b565b92915050565b613c05816135e0565b82525050565b613c1481613770565b82525050565b613c2381613663565b82525050565b600082825260208201905092915050565b6000613c458261352e565b613c4f8185613c29565b9350613c5f81856020860161354a565b613c6881613574565b840191505092915050565b600061010083016000830151613c8c6000860182613bfc565b506020830151613c9f6020860182613c0b565b506040830151613cb26040860182613c1a565b506060830151613cc56060860182613c1a565b506080830151613cd86080860182613c1a565b5060a0830151613ceb60a0860182613c1a565b5060c0830151613cfe60c0860182613c1a565b5060e083015184820360e0860152613d168282613c3a565b9150508091505092915050565b60006020820190508181036000830152613d3d8184613c73565b905092915050565b60008060408385031215613d5c57613d5b613469565b5b6000613d6a858286016136b6565b9250506020613d7b8582860161397a565b9150509250929050565b600067ffffffffffffffff821115613da057613d9f613a6d565b5b613da982613574565b9050602081019050919050565b6000613dc9613dc484613d85565b613acd565b905082815260208101848484011115613de557613de4613a68565b5b613df0848285613b19565b509392505050565b600082601f830112613e0d57613e0c61398f565b5b8135613e1d848260208601613db6565b91505092915050565b60008060008060808587031215613e4057613e3f613469565b5b6000613e4e878288016136b6565b9450506020613e5f878288016136b6565b9350506040613e7087828801613601565b925050606085013567ffffffffffffffff811115613e9157613e9061346e565b5b613e9d87828801613df8565b91505092959194509250565b60008060408385031215613ec057613ebf613469565b5b6000613ece858286016136b6565b9250506020613edf858286016136b6565b9150509250929050565b7f4e487b7100000000000000000000000000000000000000000000000000000000600052602260045260246000fd5b60006002820490506001821680613f3057607f821691505b602082108103613f4357613f42613ee9565b5b50919050565b6000606082019050613f5e6000830186613675565b613f6b602083018561370b565b613f786040830184613675565b949350505050565b7f4e6f74206f776e65720000000000000000000000000000000000000000000000600082015250565b6000613fb6600983613539565b9150613fc182613f80565b602082019050919050565b60006020820190508181036000830152613fe581613fa9565b9050919050565b7f57726f6e67207374617465000000000000000000000000000000000000000000600082015250565b6000614022600b83613539565b915061402d82613fec565b602082019050919050565b6000602082019050818103600083015261405181614015565b9050919050565b7f496e7370656374696f6e206661696c6564000000000000000000000000000000600082015250565b600061408e601183613539565b915061409982614058565b602082019050919050565b600060208201905081810360008301526140bd81614081565b9050919050565b600082905092915050565b60008190508160005260206000209050919050565b60006020601f8301049050919050565b600082821b905092915050565b6000600883026141317fffffffffffffffffffffffffffffffffffffffffffffffffffffffffffffffff826140f4565b61413b86836140f4565b95508019841693508086168417925050509392505050565b6000819050919050565b600061417861417361416e846135e0565b614153565b6135e0565b9050919050565b6000819050919050565b6141928361415d565b6141a661419e8261417f565b848454614101565b825550505050565b600090565b6141bb6141ae565b6141c6818484614189565b505050565b5b818110156141ea576141df6000826141b3565b6001810190506141cc565b5050565b601f82111561422f57614200816140cf565b614209846140e4565b81016020851015614218578190505b61422c614224856140e4565b8301826141cb565b50505b505050565b600082821c905092915050565b600061425260001984600802614234565b1980831691505092915050565b600061426b8383614241565b9150826002028217905092915050565b61428583836140c4565b67ffffffffffffffff81111561429e5761429d613a6d565b5b6142a88254613f18565b6142b38282856141ee565b6000601f8311600181146142e257600084156142d0578287013590505b6142da858261425f565b865550614342565b601f1984166142f0866140cf565b60005b82811015614318578489013582556001820191506020850194506020810190506142f3565b868310156143355784890135614331601f891682614241565b8355505b6001600288020188555050505b50505050505050565b60006143578385613539565b9350614364838584613b19565b61436d83613574565b840190509392505050565b6000602082019050818103600083015261439381848661434b565b90509392505050565b7f4e487b7100000000000000000000000000000000000000000000000000000000600052601160045260246000fd5b60006143d6826135e0565b91507fffffffffffffffffffffffffffffffffffffffffffffffffffffffffffffffff82036144085761440761439c565b5b600182019050919050565b61441c8261352e565b67ffffffffffffffff81111561443557614434613a6d565b5b61443f8254613f18565b61444a8282856141ee565b600060209050601f83116001811461447d576000841561446b578287015190505b614475858261425f565b8655506144dd565b601f19841661448b866140cf565b60005b828110156144b35784890151825560018201915060208501945060208101905061448e565b868310156144d057848901516144cc601f891682614241565b8355505b6001600288020188555050505b505050505050565b7f4d75737420626520696e73706563746564206265666f72652073616c65000000600082015250565b600061451b601d83613539565b9150614526826144e5565b602082019050919050565b6000602082019050818103600083015261454a8161450e565b9050919050565b600081519050919050565b600082825260208201905092915050565b600061457882614551565b614582818561455c565b935061459281856020860161354a565b61459b81613574565b840191505092915050565b60006080820190506145bb6000830187613675565b6145c86020830186613675565b6145d5604083018561370b565b81810360608301526145e7818461456d565b905095945050505050565b6000815190506146018161349f565b92915050565b60006020828403121561461d5761461c613469565b5b600061462b848285016145f2565b91505092915050565b600081905092915050565b600061464a8261352e565b6146548185614634565b935061466481856020860161354a565b80840191505092915050565b600061467c828561463f565b9150614688828461463f565b91508190509392505050565b60006040820190506146a96000830185613675565b6146b66020830184613820565b9392505050565b60006040820190506146d26000830185613675565b6146df602083018461370b565b9392505050565b7f4e487b7100000000000000000000000000000000000000000000000000000000600052601260045260246000fdfea26469706673582212201dc81faedb1f949932759cd12554304e7d54066ba0932a70d170502a4ed6e18464736f6c634300081c0033",
  "linkReferences": {},
  "deployedLinkReferences": {}
}